{
  "_format": "hh-sol-artifact-1",
  "contractName": "TokenExchange",
  "sourceName": "contracts/exchange.sol",
  "abi": [
    {
      "inputs": [],
      "stateMutability": "nonpayable",
      "type": "constructor"
    },
    {
      "anonymous": false,
      "inputs": [
        {
          "indexed": true,
          "internalType": "address",
          "name": "previousOwner",
          "type": "address"
        },
        {
          "indexed": true,
          "internalType": "address",
          "name": "newOwner",
          "type": "address"
        }
      ],
      "name": "OwnershipTransferred",
      "type": "event"
    },
    {
      "anonymous": false,
      "inputs": [
        {
          "indexed": false,
          "internalType": "uint256",
          "name": "number",
          "type": "uint256"
        }
      ],
      "name": "log",
      "type": "event"
    },
    {
      "inputs": [
        {
          "internalType": "uint256",
          "name": "max_exchange_rate",
          "type": "uint256"
        },
        {
          "internalType": "uint256",
          "name": "min_exchange_rate",
          "type": "uint256"
        }
      ],
      "name": "addLiquidity",
      "outputs": [],
      "stateMutability": "payable",
      "type": "function"
    },
    {
      "inputs": [
        {
          "internalType": "uint256",
          "name": "amountTokens",
          "type": "uint256"
        }
      ],
      "name": "createPool",
      "outputs": [],
      "stateMutability": "payable",
      "type": "function"
    },
    {
      "inputs": [],
      "name": "eth_reserves",
      "outputs": [
        {
          "internalType": "uint256",
          "name": "",
          "type": "uint256"
        }
      ],
      "stateMutability": "view",
      "type": "function"
    },
    {
      "inputs": [],
      "name": "exchange_name",
      "outputs": [
        {
          "internalType": "string",
          "name": "",
          "type": "string"
        }
      ],
      "stateMutability": "view",
      "type": "function"
    },
    {
      "inputs": [],
      "name": "getLps",
      "outputs": [
        {
          "internalType": "uint256",
          "name": "",
          "type": "uint256"
        }
      ],
      "stateMutability": "view",
      "type": "function"
    },
    {
      "inputs": [],
      "name": "getSwapFee",
      "outputs": [
        {
          "internalType": "uint256",
          "name": "",
          "type": "uint256"
        },
        {
          "internalType": "uint256",
          "name": "",
          "type": "uint256"
        }
      ],
      "stateMutability": "view",
      "type": "function"
    },
    {
      "inputs": [
        {
          "internalType": "uint256",
          "name": "",
          "type": "uint256"
        }
      ],
      "name": "lp_providers",
      "outputs": [
        {
          "internalType": "address",
          "name": "",
          "type": "address"
        }
      ],
      "stateMutability": "view",
      "type": "function"
    },
    {
      "inputs": [],
      "name": "owner",
      "outputs": [
        {
          "internalType": "address",
          "name": "",
          "type": "address"
        }
      ],
      "stateMutability": "view",
      "type": "function"
    },
    {
      "inputs": [
        {
          "internalType": "uint256",
          "name": "max_exchange_rate",
          "type": "uint256"
        },
        {
          "internalType": "uint256",
          "name": "min_exchange_rate",
          "type": "uint256"
        }
      ],
      "name": "removeAllLiquidity",
      "outputs": [],
      "stateMutability": "payable",
      "type": "function"
    },
    {
      "inputs": [
        {
          "internalType": "uint256",
          "name": "amountETH",
          "type": "uint256"
        },
        {
          "internalType": "uint256",
          "name": "max_exchange_rate",
          "type": "uint256"
        },
        {
          "internalType": "uint256",
          "name": "min_exchange_rate",
          "type": "uint256"
        }
      ],
      "name": "removeLiquidity",
      "outputs": [],
      "stateMutability": "payable",
      "type": "function"
    },
    {
      "inputs": [],
      "name": "renounceOwnership",
      "outputs": [],
      "stateMutability": "nonpayable",
      "type": "function"
    },
    {
      "inputs": [
        {
          "internalType": "uint256",
          "name": "max_exchange_rate",
          "type": "uint256"
        }
      ],
      "name": "swapETHForTokens",
      "outputs": [],
      "stateMutability": "payable",
      "type": "function"
    },
    {
      "inputs": [
        {
          "internalType": "uint256",
          "name": "amountTokens",
          "type": "uint256"
        },
        {
          "internalType": "uint256",
          "name": "max_exchange_rate",
          "type": "uint256"
        }
      ],
      "name": "swapTokensForETH",
      "outputs": [],
      "stateMutability": "payable",
      "type": "function"
    },
    {
      "inputs": [],
      "name": "token",
      "outputs": [
        {
          "internalType": "contract Token",
          "name": "",
          "type": "address"
        }
      ],
      "stateMutability": "view",
      "type": "function"
    },
    {
      "inputs": [],
      "name": "token_reserves",
      "outputs": [
        {
          "internalType": "uint256",
          "name": "",
          "type": "uint256"
        }
      ],
      "stateMutability": "view",
      "type": "function"
    },
    {
      "inputs": [
        {
          "internalType": "address",
          "name": "newOwner",
          "type": "address"
        }
      ],
      "name": "transferOwnership",
      "outputs": [],
      "stateMutability": "nonpayable",
      "type": "function"
    }
  ],
  "bytecode": "0x60806040526040518060400160405280600781526020017f5a656e5377617000000000000000000000000000000000000000000000000000815250600190816200004a9190620004b5565b50735fbdb2315678afecb367f032d93f642f64180aa3600260006101000a81548173ffffffffffffffffffffffffffffffffffffffff021916908373ffffffffffffffffffffffffffffffffffffffff160217905550600260009054906101000a900473ffffffffffffffffffffffffffffffffffffffff16600360006101000a81548173ffffffffffffffffffffffffffffffffffffffff021916908373ffffffffffffffffffffffffffffffffffffffff160217905550600060045560006005556003600855606460095564e8d4a51000600a556000600b60006101000a81548160ff0219169083151502179055503480156200014857600080fd5b50620001696200015d6200016f60201b60201c565b6200017760201b60201c565b6200059c565b600033905090565b60008060009054906101000a900473ffffffffffffffffffffffffffffffffffffffff169050816000806101000a81548173ffffffffffffffffffffffffffffffffffffffff021916908373ffffffffffffffffffffffffffffffffffffffff1602179055508173ffffffffffffffffffffffffffffffffffffffff168173ffffffffffffffffffffffffffffffffffffffff167f8be0079c531659141344cd1fd0a4f28419497f9722a3daafe3b4186f6b6457e060405160405180910390a35050565b600081519050919050565b7f4e487b7100000000000000000000000000000000000000000000000000000000600052604160045260246000fd5b7f4e487b7100000000000000000000000000000000000000000000000000000000600052602260045260246000fd5b60006002820490506001821680620002bd57607f821691505b602082108103620002d357620002d262000275565b5b50919050565b60008190508160005260206000209050919050565b60006020601f8301049050919050565b600082821b905092915050565b6000600883026200033d7fffffffffffffffffffffffffffffffffffffffffffffffffffffffffffffffff82620002fe565b620003498683620002fe565b95508019841693508086168417925050509392505050565b6000819050919050565b6000819050919050565b600062000396620003906200038a8462000361565b6200036b565b62000361565b9050919050565b6000819050919050565b620003b28362000375565b620003ca620003c1826200039d565b8484546200030b565b825550505050565b600090565b620003e1620003d2565b620003ee818484620003a7565b505050565b5b8181101562000416576200040a600082620003d7565b600181019050620003f4565b5050565b601f82111562000465576200042f81620002d9565b6200043a84620002ee565b810160208510156200044a578190505b620004626200045985620002ee565b830182620003f3565b50505b505050565b600082821c905092915050565b60006200048a600019846008026200046a565b1980831691505092915050565b6000620004a5838362000477565b9150826002028217905092915050565b620004c0826200023b565b67ffffffffffffffff811115620004dc57620004db62000246565b5b620004e88254620002a4565b620004f58282856200041a565b600060209050601f8311600181146200052d576000841562000518578287015190505b62000524858262000497565b86555062000594565b601f1984166200053d86620002d9565b60005b82811015620005675784890151825560018201915060208501945060208101905062000540565b8683101562000587578489015162000583601f89168262000477565b8355505b6001600288020188555050505b505050505050565b6132f680620005ac6000396000f3fe6080604052600436106100f35760003560e01c80639adb3b971161008a578063d4cadf6811610059578063d4cadf68146102a0578063f2fde38b146102cc578063f694f7d1146102f5578063fc0c546a14610320576100f3565b80639adb3b97146102005780639cd441da1461022b578063a22280a614610247578063bc53cea114610263576100f3565b80638259e6a0116100c65780638259e6a014610172578063857620e11461018e5780638da5cb5b146101aa57806397ba499f146101d5576100f3565b80632eab2841146100f857806358ad6de414610114578063715018a61461013057806380e1a78514610147575b600080fd5b610112600480360381019061010d919061222e565b61034b565b005b61012e6004803603810190610129919061225b565b61068a565b005b34801561013c57600080fd5b506101456106f8565b005b34801561015357600080fd5b5061015c61070c565b60405161016991906122aa565b60405180910390f35b61018c6004803603810190610187919061222e565b6107f6565b005b6101a860048036038101906101a391906122c5565b610b78565b005b3480156101b657600080fd5b506101bf6112b7565b6040516101cc9190612359565b60405180910390f35b3480156101e157600080fd5b506101ea6112e0565b6040516101f791906122aa565b60405180910390f35b34801561020c57600080fd5b506102156112e6565b60405161022291906122aa565b60405180910390f35b6102456004803603810190610240919061225b565b6112ec565b005b610261600480360381019061025c919061225b565b61197e565b005b34801561026f57600080fd5b5061028a6004803603810190610285919061222e565b611de5565b6040516102979190612359565b60405180910390f35b3480156102ac57600080fd5b506102b5611e24565b6040516102c3929190612374565b60405180910390f35b3480156102d857600080fd5b506102f360048036038101906102ee91906123c9565b611e35565b005b34801561030157600080fd5b5061030a611eb8565b6040516103179190612486565b60405180910390f35b34801561032c57600080fd5b50610335611f46565b6040516103429190612507565b60405180910390f35b600b60009054906101000a900460ff161561039b576040517f08c379a00000000000000000000000000000000000000000000000000000000081526004016103929061256e565b60405180910390fd5b6001600b60006101000a81548160ff021916908315150217905550600160045410156103fc576040517f08c379a00000000000000000000000000000000000000000000000000000000081526004016103f3906125da565b60405180910390fd5b6000341161043f576040517f08c379a00000000000000000000000000000000000000000000000000000000081526004016104369061266c565b60405180910390fd5b80600454600a5460055461045391906126bb565b61045d919061272c565b111561049e576040517f08c379a0000000000000000000000000000000000000000000000000000000008152600401610495906127cf565b60405180910390fd5b600060643460085460646104b291906127ef565b6104bc91906126bb565b6104c6919061272c565b6005546104d39190612823565b6005546004546104e391906126bb565b6104ed919061272c565b6004546104fa91906127ef565b905060008160045461050c91906127ef565b036105215760018161051e91906127ef565b90505b47600581905550600360009054906101000a900473ffffffffffffffffffffffffffffffffffffffff1673ffffffffffffffffffffffffffffffffffffffff1663a9059cbb33836040518363ffffffff1660e01b8152600401610585929190612857565b6020604051808303816000875af11580156105a4573d6000803e3d6000fd5b505050506040513d601f19601f820116820180604052508101906105c891906128b8565b50600360009054906101000a900473ffffffffffffffffffffffffffffffffffffffff1673ffffffffffffffffffffffffffffffffffffffff166370a08231306040518263ffffffff1660e01b81526004016106249190612359565b602060405180830381865afa158015610641573d6000803e3d6000fd5b505050506040513d601f19601f8201168201806040525081019061066591906128fa565b600481905550506000600b60006101000a81548160ff02191690831515021790555050565b6000600a54600554600660003373ffffffffffffffffffffffffffffffffffffffff1673ffffffffffffffffffffffffffffffffffffffff168152602001908152602001600020546106dc91906126bb565b6106e6919061272c565b90506106f3818484610b78565b505050565b610700611f6c565b61070a6000611fea565b565b600080600090505b6007805490508110156107ed573373ffffffffffffffffffffffffffffffffffffffff166007828154811061074c5761074b612927565b5b9060005260206000200160009054906101000a900473ffffffffffffffffffffffffffffffffffffffff1673ffffffffffffffffffffffffffffffffffffffff16036107da57600660003373ffffffffffffffffffffffffffffffffffffffff1673ffffffffffffffffffffffffffffffffffffffff168152602001908152602001600020549150506107f3565b80806107e590612956565b915050610714565b50600090505b90565b6107fe611f6c565b600060045414610843576040517f08c379a000000000000000000000000000000000000000000000000000000000815260040161083a906129ea565b60405180910390fd5b600060055414610888576040517f08c379a000000000000000000000000000000000000000000000000000000000815260040161087f90612a56565b60405180910390fd5b600034116108cb576040517f08c379a00000000000000000000000000000000000000000000000000000000081526004016108c290612ac2565b60405180910390fd5b6000600360009054906101000a900473ffffffffffffffffffffffffffffffffffffffff1673ffffffffffffffffffffffffffffffffffffffff166370a08231336040518263ffffffff1660e01b81526004016109289190612359565b602060405180830381865afa158015610945573d6000803e3d6000fd5b505050506040513d601f19601f8201168201806040525081019061096991906128fa565b9050808211156109ae576040517f08c379a00000000000000000000000000000000000000000000000000000000081526004016109a590612b54565b60405180910390fd5b600082116109f1576040517f08c379a00000000000000000000000000000000000000000000000000000000081526004016109e890612bc0565b60405180910390fd5b600360009054906101000a900473ffffffffffffffffffffffffffffffffffffffff1673ffffffffffffffffffffffffffffffffffffffff166323b872dd3330856040518463ffffffff1660e01b8152600401610a5093929190612be0565b6020604051808303816000875af1158015610a6f573d6000803e3d6000fd5b505050506040513d601f19601f82011682018060405250810190610a9391906128b8565b50600360009054906101000a900473ffffffffffffffffffffffffffffffffffffffff1673ffffffffffffffffffffffffffffffffffffffff166370a08231306040518263ffffffff1660e01b8152600401610aef9190612359565b602060405180830381865afa158015610b0c573d6000803e3d6000fd5b505050506040513d601f19601f82011682018060405250810190610b3091906128fa565b600481905550346005819055507ff82c50f1848136e6c140b186ea0c768b7deda5efffe42c25e96336a90b26c74434604051610b6c91906122aa565b60405180910390a15050565b600b60009054906101000a900460ff1615610bc8576040517f08c379a0000000000000000000000000000000000000000000000000000000008152600401610bbf9061256e565b60405180910390fd5b6001600b60006101000a81548160ff021916908315150217905550600060055460045485610bf691906126bb565b610c00919061272c565b9050600454600660003373ffffffffffffffffffffffffffffffffffffffff1673ffffffffffffffffffffffffffffffffffffffff16815260200190815260200160002054610c4f91906126bb565b600a5482610c5d91906126bb565b1115610c9e576040517f08c379a0000000000000000000000000000000000000000000000000000000008152600401610c9590612c89565b60405180910390fd5b8181600a5486610cae91906126bb565b610cb8919061272c565b1015610cf9576040517f08c379a0000000000000000000000000000000000000000000000000000000008152600401610cf090612cf5565b60405180910390fd5b8281600a5486610d0991906126bb565b610d13919061272c565b1115610d54576040517f08c379a0000000000000000000000000000000000000000000000000000000008152600401610d4b90612d61565b60405180910390fd5b60006004549050600082600454610d6b91906127ef565b11610dab576040517f08c379a0000000000000000000000000000000000000000000000000000000008152600401610da290612df3565b60405180910390fd5b600085600554610dbb91906127ef565b11610dfb576040517f08c379a0000000000000000000000000000000000000000000000000000000008152600401610df290612e85565b60405180910390fd5b600082600454610e0b91906127ef565b03610e2057600182610e1d91906127ef565b91505b600085600554610e3091906127ef565b03610e4557600185610e4291906127ef565b94505b600360009054906101000a900473ffffffffffffffffffffffffffffffffffffffff1673ffffffffffffffffffffffffffffffffffffffff1663a9059cbb33846040518363ffffffff1660e01b8152600401610ea2929190612857565b6020604051808303816000875af1158015610ec1573d6000803e3d6000fd5b505050506040513d601f19601f82011682018060405250810190610ee591906128b8565b50600360009054906101000a900473ffffffffffffffffffffffffffffffffffffffff1673ffffffffffffffffffffffffffffffffffffffff166370a08231306040518263ffffffff1660e01b8152600401610f419190612359565b602060405180830381865afa158015610f5e573d6000803e3d6000fd5b505050506040513d601f19601f82011682018060405250810190610f8291906128fa565b6004819055503373ffffffffffffffffffffffffffffffffffffffff166108fc869081150290604051600060405180830381858888f19350505050158015610fce573d6000803e3d6000fd5b5047600581905550600454600a5483610fe791906126bb565b82600660003373ffffffffffffffffffffffffffffffffffffffff1673ffffffffffffffffffffffffffffffffffffffff1681526020019081526020016000205461103291906126bb565b61103c91906127ef565b611046919061272c565b600660003373ffffffffffffffffffffffffffffffffffffffff1673ffffffffffffffffffffffffffffffffffffffff16815260200190815260200160002081905550600080600090505b600780549050811015611242573373ffffffffffffffffffffffffffffffffffffffff16600782815481106110c9576110c8612927565b5b9060005260206000200160009054906101000a900473ffffffffffffffffffffffffffffffffffffffff1673ffffffffffffffffffffffffffffffffffffffff16036111175780915061122f565b60045483600660006007858154811061113357611132612927565b5b9060005260206000200160009054906101000a900473ffffffffffffffffffffffffffffffffffffffff1673ffffffffffffffffffffffffffffffffffffffff1673ffffffffffffffffffffffffffffffffffffffff168152602001908152602001600020546111a391906126bb565b6111ad919061272c565b60066000600784815481106111c5576111c4612927565b5b9060005260206000200160009054906101000a900473ffffffffffffffffffffffffffffffffffffffff1673ffffffffffffffffffffffffffffffffffffffff1673ffffffffffffffffffffffffffffffffffffffff168152602001908152602001600020819055505b808061123a90612956565b915050611091565b506000600660003373ffffffffffffffffffffffffffffffffffffffff1673ffffffffffffffffffffffffffffffffffffffff168152602001908152602001600020540361129457611293816120ae565b5b5050506000600b60006101000a81548160ff021916908315150217905550505050565b60008060009054906101000a900473ffffffffffffffffffffffffffffffffffffffff16905090565b60055481565b60045481565b600034905060008111611334576040517f08c379a000000000000000000000000000000000000000000000000000000000815260040161132b90612f17565b60405180910390fd5b60006005546004548361134791906126bb565b611351919061272c565b9050600360009054906101000a900473ffffffffffffffffffffffffffffffffffffffff1673ffffffffffffffffffffffffffffffffffffffff166370a08231336040518263ffffffff1660e01b81526004016113ae9190612359565b602060405180830381865afa1580156113cb573d6000803e3d6000fd5b505050506040513d601f19601f820116820180604052508101906113ef91906128fa565b811115611431576040517f08c379a000000000000000000000000000000000000000000000000000000000815260040161142890612c89565b60405180910390fd5b8281600a548461144191906126bb565b61144b919061272c565b101561148c576040517f08c379a000000000000000000000000000000000000000000000000000000000815260040161148390612cf5565b60405180910390fd5b8381600a548461149c91906126bb565b6114a6919061272c565b11156114e7576040517f08c379a00000000000000000000000000000000000000000000000000000000081526004016114de90612d61565b60405180910390fd5b600360009054906101000a900473ffffffffffffffffffffffffffffffffffffffff1673ffffffffffffffffffffffffffffffffffffffff166323b872dd3330846040518463ffffffff1660e01b815260040161154693929190612be0565b6020604051808303816000875af1158015611565573d6000803e3d6000fd5b505050506040513d601f19601f8201168201806040525081019061158991906128b8565b50600360009054906101000a900473ffffffffffffffffffffffffffffffffffffffff1673ffffffffffffffffffffffffffffffffffffffff166370a08231306040518263ffffffff1660e01b81526004016115e59190612359565b602060405180830381865afa158015611602573d6000803e3d6000fd5b505050506040513d601f19601f8201168201806040525081019061162691906128fa565b6004819055504760058190555060008160045461164391906127ef565b90506000805b6007805490508110156118ae573373ffffffffffffffffffffffffffffffffffffffff166007828154811061168157611680612927565b5b9060005260206000200160009054906101000a900473ffffffffffffffffffffffffffffffffffffffff1673ffffffffffffffffffffffffffffffffffffffff16036117835760019150600454600a54856116dc91906126bb565b6116e6919061272c565b83600660003373ffffffffffffffffffffffffffffffffffffffff1673ffffffffffffffffffffffffffffffffffffffff1681526020019081526020016000205461173191906126bb565b61173b9190612823565b600660003373ffffffffffffffffffffffffffffffffffffffff1673ffffffffffffffffffffffffffffffffffffffff1681526020019081526020016000208190555061189b565b60045483600660006007858154811061179f5761179e612927565b5b9060005260206000200160009054906101000a900473ffffffffffffffffffffffffffffffffffffffff1673ffffffffffffffffffffffffffffffffffffffff1673ffffffffffffffffffffffffffffffffffffffff1681526020019081526020016000205461180f91906126bb565b611819919061272c565b600660006007848154811061183157611830612927565b5b9060005260206000200160009054906101000a900473ffffffffffffffffffffffffffffffffffffffff1673ffffffffffffffffffffffffffffffffffffffff1673ffffffffffffffffffffffffffffffffffffffff168152602001908152602001600020819055505b80806118a690612956565b915050611649565b5080611976576007339080600181540180825580915050600190039060005260206000200160009091909190916101000a81548173ffffffffffffffffffffffffffffffffffffffff021916908373ffffffffffffffffffffffffffffffffffffffff160217905550600454600a548461192891906126bb565b611932919061272c565b600660003373ffffffffffffffffffffffffffffffffffffffff1673ffffffffffffffffffffffffffffffffffffffff168152602001908152602001600020819055505b505050505050565b600b60009054906101000a900460ff16156119ce576040517f08c379a00000000000000000000000000000000000000000000000000000000081526004016119c59061256e565b60405180910390fd5b6001600b60006101000a81548160ff02191690831515021790555060016005541015611a2f576040517f08c379a0000000000000000000000000000000000000000000000000000000008152600401611a2690612f83565b60405180910390fd5b60008211611a72576040517f08c379a0000000000000000000000000000000000000000000000000000000008152600401611a6990613015565b60405180910390fd5b600360009054906101000a900473ffffffffffffffffffffffffffffffffffffffff1673ffffffffffffffffffffffffffffffffffffffff166370a08231336040518263ffffffff1660e01b8152600401611acd9190612359565b602060405180830381865afa158015611aea573d6000803e3d6000fd5b505050506040513d601f19601f82011682018060405250810190611b0e91906128fa565b821115611b50576040517f08c379a0000000000000000000000000000000000000000000000000000000008152600401611b4790613081565b60405180910390fd5b80600454600a54600554611b6491906126bb565b611b6e919061272c565b1115611baf576040517f08c379a0000000000000000000000000000000000000000000000000000000008152600401611ba6906127cf565b60405180910390fd5b60006064836008546064611bc391906127ef565b611bcd91906126bb565b611bd7919061272c565b600454611be49190612823565b600554600454611bf491906126bb565b611bfe919061272c565b600554611c0b91906127ef565b9050600081600554611c1d91906127ef565b03611c3257600181611c2f91906127ef565b90505b600360009054906101000a900473ffffffffffffffffffffffffffffffffffffffff1673ffffffffffffffffffffffffffffffffffffffff166323b872dd3330866040518463ffffffff1660e01b8152600401611c9193929190612be0565b6020604051808303816000875af1158015611cb0573d6000803e3d6000fd5b505050506040513d601f19601f82011682018060405250810190611cd491906128b8565b50600360009054906101000a900473ffffffffffffffffffffffffffffffffffffffff1673ffffffffffffffffffffffffffffffffffffffff166370a08231306040518263ffffffff1660e01b8152600401611d309190612359565b602060405180830381865afa158015611d4d573d6000803e3d6000fd5b505050506040513d601f19601f82011682018060405250810190611d7191906128fa565b6004819055503373ffffffffffffffffffffffffffffffffffffffff166108fc829081150290604051600060405180830381858888f19350505050158015611dbd573d6000803e3d6000fd5b5047600581905550506000600b60006101000a81548160ff0219169083151502179055505050565b60078181548110611df557600080fd5b906000526020600020016000915054906101000a900473ffffffffffffffffffffffffffffffffffffffff1681565b600080600854600954915091509091565b611e3d611f6c565b600073ffffffffffffffffffffffffffffffffffffffff168173ffffffffffffffffffffffffffffffffffffffff1603611eac576040517f08c379a0000000000000000000000000000000000000000000000000000000008152600401611ea390613113565b60405180910390fd5b611eb581611fea565b50565b60018054611ec590613162565b80601f0160208091040260200160405190810160405280929190818152602001828054611ef190613162565b8015611f3e5780601f10611f1357610100808354040283529160200191611f3e565b820191906000526020600020905b815481529060010190602001808311611f2157829003601f168201915b505050505081565b600360009054906101000a900473ffffffffffffffffffffffffffffffffffffffff1681565b611f746121eb565b73ffffffffffffffffffffffffffffffffffffffff16611f926112b7565b73ffffffffffffffffffffffffffffffffffffffff1614611fe8576040517f08c379a0000000000000000000000000000000000000000000000000000000008152600401611fdf906131df565b60405180910390fd5b565b60008060009054906101000a900473ffffffffffffffffffffffffffffffffffffffff169050816000806101000a81548173ffffffffffffffffffffffffffffffffffffffff021916908373ffffffffffffffffffffffffffffffffffffffff1602179055508173ffffffffffffffffffffffffffffffffffffffff168173ffffffffffffffffffffffffffffffffffffffff167f8be0079c531659141344cd1fd0a4f28419497f9722a3daafe3b4186f6b6457e060405160405180910390a35050565b60078054905081106120f5576040517f08c379a00000000000000000000000000000000000000000000000000000000081526004016120ec90613271565b60405180910390fd5b6007600160078054905061210991906127ef565b8154811061211a57612119612927565b5b9060005260206000200160009054906101000a900473ffffffffffffffffffffffffffffffffffffffff166007828154811061215957612158612927565b5b9060005260206000200160006101000a81548173ffffffffffffffffffffffffffffffffffffffff021916908373ffffffffffffffffffffffffffffffffffffffff16021790555060078054806121b3576121b2613291565b5b6001900381819060005260206000200160006101000a81549073ffffffffffffffffffffffffffffffffffffffff0219169055905550565b600033905090565b600080fd5b6000819050919050565b61220b816121f8565b811461221657600080fd5b50565b60008135905061222881612202565b92915050565b600060208284031215612244576122436121f3565b5b600061225284828501612219565b91505092915050565b60008060408385031215612272576122716121f3565b5b600061228085828601612219565b925050602061229185828601612219565b9150509250929050565b6122a4816121f8565b82525050565b60006020820190506122bf600083018461229b565b92915050565b6000806000606084860312156122de576122dd6121f3565b5b60006122ec86828701612219565b93505060206122fd86828701612219565b925050604061230e86828701612219565b9150509250925092565b600073ffffffffffffffffffffffffffffffffffffffff82169050919050565b600061234382612318565b9050919050565b61235381612338565b82525050565b600060208201905061236e600083018461234a565b92915050565b6000604082019050612389600083018561229b565b612396602083018461229b565b9392505050565b6123a681612338565b81146123b157600080fd5b50565b6000813590506123c38161239d565b92915050565b6000602082840312156123df576123de6121f3565b5b60006123ed848285016123b4565b91505092915050565b600081519050919050565b600082825260208201905092915050565b60005b83811015612430578082015181840152602081019050612415565b60008484015250505050565b6000601f19601f8301169050919050565b6000612458826123f6565b6124628185612401565b9350612472818560208601612412565b61247b8161243c565b840191505092915050565b600060208201905081810360008301526124a0818461244d565b905092915050565b6000819050919050565b60006124cd6124c86124c384612318565b6124a8565b612318565b9050919050565b60006124df826124b2565b9050919050565b60006124f1826124d4565b9050919050565b612501816124e6565b82525050565b600060208201905061251c60008301846124f8565b92915050565b7f4e6f2072652d656e7472616e6379000000000000000000000000000000000000600082015250565b6000612558600e83612401565b915061256382612522565b602082019050919050565b600060208201905081810360008301526125878161254b565b9050919050565b7f546f6b656e206973206d696e696d756d00000000000000000000000000000000600082015250565b60006125c4601083612401565b91506125cf8261258e565b602082019050919050565b600060208201905081810360008301526125f3816125b7565b9050919050565b7f4572726f723a204d7573742073776170206120706f73697469766520616d6f7560008201527f6e74206f66204554480000000000000000000000000000000000000000000000602082015250565b6000612656602983612401565b9150612661826125fa565b604082019050919050565b6000602082019050818103600083015261268581612649565b9050919050565b7f4e487b7100000000000000000000000000000000000000000000000000000000600052601160045260246000fd5b60006126c6826121f8565b91506126d1836121f8565b92508282026126df816121f8565b915082820484148315176126f6576126f561268c565b5b5092915050565b7f4e487b7100000000000000000000000000000000000000000000000000000000600052601260045260246000fd5b6000612737826121f8565b9150612742836121f8565b925082612752576127516126fd565b5b828204905092915050565b7f4572726f723a2045786368616e6765207261746520677265617465722074686160008201527f6e20737065636966696564207261746500000000000000000000000000000000602082015250565b60006127b9603083612401565b91506127c48261275d565b604082019050919050565b600060208201905081810360008301526127e8816127ac565b9050919050565b60006127fa826121f8565b9150612805836121f8565b925082820390508181111561281d5761281c61268c565b5b92915050565b600061282e826121f8565b9150612839836121f8565b92508282019050808211156128515761285061268c565b5b92915050565b600060408201905061286c600083018561234a565b612879602083018461229b565b9392505050565b60008115159050919050565b61289581612880565b81146128a057600080fd5b50565b6000815190506128b28161288c565b92915050565b6000602082840312156128ce576128cd6121f3565b5b60006128dc848285016128a3565b91505092915050565b6000815190506128f481612202565b92915050565b6000602082840312156129105761290f6121f3565b5b600061291e848285016128e5565b91505092915050565b7f4e487b7100000000000000000000000000000000000000000000000000000000600052603260045260246000fd5b6000612961826121f8565b91507fffffffffffffffffffffffffffffffffffffffffffffffffffffffffffffffff82036129935761299261268c565b5b600182019050919050565b7f546f6b656e20726573657276657320776173206e6f7420300000000000000000600082015250565b60006129d4601883612401565b91506129df8261299e565b602082019050919050565b60006020820190508181036000830152612a03816129c7565b9050919050565b7f45544820726573657276657320776173206e6f7420302e000000000000000000600082015250565b6000612a40601783612401565b9150612a4b82612a0a565b602082019050919050565b60006020820190508181036000830152612a6f81612a33565b9050919050565b7f4e6565642065746820746f2063726561746520706f6f6c000000000000000000600082015250565b6000612aac601783612401565b9150612ab782612a76565b602082019050919050565b60006020820190508181036000830152612adb81612a9f565b9050919050565b7f4e6f74206861766520656e6f75676820746f6b656e7320746f2063726561746560008201527f2074686520706f6f6c0000000000000000000000000000000000000000000000602082015250565b6000612b3e602983612401565b9150612b4982612ae2565b604082019050919050565b60006020820190508181036000830152612b6d81612b31565b9050919050565b7f4e65656420746f6b656e7320746f2063726561746520706f6f6c2e0000000000600082015250565b6000612baa601b83612401565b9150612bb582612b74565b602082019050919050565b60006020820190508181036000830152612bd981612b9d565b9050919050565b6000606082019050612bf5600083018661234a565b612c02602083018561234a565b612c0f604083018461229b565b949350505050565b7f4572726f723a205573657220646f6573206e6f74206861766520656e6f75676860008201527f20746f6b656e7300000000000000000000000000000000000000000000000000602082015250565b6000612c73602783612401565b9150612c7e82612c17565b604082019050919050565b60006020820190508181036000830152612ca281612c66565b9050919050565b7f4572726f723a2042656c6f77206d696e2065786368616e676520726174650000600082015250565b6000612cdf601e83612401565b9150612cea82612ca9565b602082019050919050565b60006020820190508181036000830152612d0e81612cd2565b9050919050565b7f4572726f723a2041626f7665206d61782065786368616e676520726174650000600082015250565b6000612d4b601e83612401565b9150612d5682612d15565b602082019050919050565b60006020820190508181036000830152612d7a81612d3e565b9050919050565b7f4572726f723a2043616e6e6f74206465706c65746520746f6b656e207265736560008201527f7276657320746f20300000000000000000000000000000000000000000000000602082015250565b6000612ddd602983612401565b9150612de882612d81565b604082019050919050565b60006020820190508181036000830152612e0c81612dd0565b9050919050565b7f4572726f723a2043616e6e6f74206465706c657465204554482072657365727660008201527f657320746f203000000000000000000000000000000000000000000000000000602082015250565b6000612e6f602783612401565b9150612e7a82612e13565b604082019050919050565b60006020820190508181036000830152612e9e81612e62565b9050919050565b7f4572726f723a20537570706c79206f6620455448206e6f7420706f736974697660008201527f6500000000000000000000000000000000000000000000000000000000000000602082015250565b6000612f01602183612401565b9150612f0c82612ea5565b604082019050919050565b60006020820190508181036000830152612f3081612ef4565b9050919050565b7f455448206973206d696e696d756d000000000000000000000000000000000000600082015250565b6000612f6d600e83612401565b9150612f7882612f37565b602082019050919050565b60006020820190508181036000830152612f9c81612f60565b9050919050565b7f4572726f723a204d7573742073776170206120706f73697469766520616d6f7560008201527f6e74206f6620546f6b656e730000000000000000000000000000000000000000602082015250565b6000612fff602c83612401565b915061300a82612fa3565b604082019050919050565b6000602082019050818103600083015261302e81612ff2565b9050919050565b7f4572726f723a20446f6e2774206861766520656e6f75676820746f6b656e7300600082015250565b600061306b601f83612401565b915061307682613035565b602082019050919050565b6000602082019050818103600083015261309a8161305e565b9050919050565b7f4f776e61626c653a206e6577206f776e657220697320746865207a65726f206160008201527f6464726573730000000000000000000000000000000000000000000000000000602082015250565b60006130fd602683612401565b9150613108826130a1565b604082019050919050565b6000602082019050818103600083015261312c816130f0565b9050919050565b7f4e487b7100000000000000000000000000000000000000000000000000000000600052602260045260246000fd5b6000600282049050600182168061317a57607f821691505b60208210810361318d5761318c613133565b5b50919050565b7f4f776e61626c653a2063616c6c6572206973206e6f7420746865206f776e6572600082015250565b60006131c9602083612401565b91506131d482613193565b602082019050919050565b600060208201905081810360008301526131f8816131bc565b9050919050565b7f73706563696669656420696e646578206973206c6172676572207468616e207460008201527f6865206e756d626572206f66206c707300000000000000000000000000000000602082015250565b600061325b603083612401565b9150613266826131ff565b604082019050919050565b6000602082019050818103600083015261328a8161324e565b9050919050565b7f4e487b7100000000000000000000000000000000000000000000000000000000600052603160045260246000fdfea26469706673582212208424155331b235aeba28e65a4f3fdf16e31d55e8c16b952b83f385171fdc503e64736f6c63430008110033",
  "linkReferences": {},
  "deployedLinkReferences": {}
}