{
  "_format": "hh-sol-artifact-1",
  "contractName": "TokenExchange",
  "sourceName": "contracts/exchange.sol",
  "abi": [
    {
      "inputs": [],
      "stateMutability": "nonpayable",
      "type": "constructor"
    },
    {
      "anonymous": false,
      "inputs": [
        {
          "indexed": true,
          "internalType": "address",
          "name": "previousOwner",
          "type": "address"
        },
        {
          "indexed": true,
          "internalType": "address",
          "name": "newOwner",
          "type": "address"
        }
      ],
      "name": "OwnershipTransferred",
      "type": "event"
    },
    {
      "inputs": [
        {
          "internalType": "uint256",
          "name": "max_exchange_rate",
          "type": "uint256"
        },
        {
          "internalType": "uint256",
          "name": "min_exchange_rate",
          "type": "uint256"
        }
      ],
      "name": "addLiquidity",
      "outputs": [],
      "stateMutability": "payable",
      "type": "function"
    },
    {
      "inputs": [
        {
          "internalType": "uint256",
          "name": "amountTokens",
          "type": "uint256"
        }
      ],
      "name": "createPool",
      "outputs": [],
      "stateMutability": "payable",
      "type": "function"
    },
    {
      "inputs": [],
      "name": "exchange_name",
      "outputs": [
        {
          "internalType": "string",
          "name": "",
          "type": "string"
        }
      ],
      "stateMutability": "view",
      "type": "function"
    },
    {
      "inputs": [],
      "name": "getSwapFee",
      "outputs": [
        {
          "internalType": "uint256",
          "name": "",
          "type": "uint256"
        },
        {
          "internalType": "uint256",
          "name": "",
          "type": "uint256"
        }
      ],
      "stateMutability": "view",
      "type": "function"
    },
    {
      "inputs": [],
      "name": "owner",
      "outputs": [
        {
          "internalType": "address",
          "name": "",
          "type": "address"
        }
      ],
      "stateMutability": "view",
      "type": "function"
    },
    {
      "inputs": [
        {
          "internalType": "uint256",
          "name": "max_exchange_rate",
          "type": "uint256"
        },
        {
          "internalType": "uint256",
          "name": "min_exchange_rate",
          "type": "uint256"
        }
      ],
      "name": "removeAllLiquidity",
      "outputs": [],
      "stateMutability": "payable",
      "type": "function"
    },
    {
      "inputs": [
        {
          "internalType": "uint256",
          "name": "amountETH",
          "type": "uint256"
        },
        {
          "internalType": "uint256",
          "name": "max_exchange_rate",
          "type": "uint256"
        },
        {
          "internalType": "uint256",
          "name": "min_exchange_rate",
          "type": "uint256"
        }
      ],
      "name": "removeLiquidity",
      "outputs": [],
      "stateMutability": "payable",
      "type": "function"
    },
    {
      "inputs": [],
      "name": "renounceOwnership",
      "outputs": [],
      "stateMutability": "nonpayable",
      "type": "function"
    },
    {
      "inputs": [
        {
          "internalType": "uint256",
          "name": "max_exchange_rate",
          "type": "uint256"
        }
      ],
      "name": "swapETHForTokens",
      "outputs": [],
      "stateMutability": "payable",
      "type": "function"
    },
    {
      "inputs": [
        {
          "internalType": "uint256",
          "name": "amountTokens",
          "type": "uint256"
        },
        {
          "internalType": "uint256",
          "name": "max_exchange_rate",
          "type": "uint256"
        }
      ],
      "name": "swapTokensForETH",
      "outputs": [],
      "stateMutability": "payable",
      "type": "function"
    },
    {
      "inputs": [],
      "name": "token",
      "outputs": [
        {
          "internalType": "contract Token",
          "name": "",
          "type": "address"
        }
      ],
      "stateMutability": "view",
      "type": "function"
    },
    {
      "inputs": [
        {
          "internalType": "address",
          "name": "newOwner",
          "type": "address"
        }
      ],
      "name": "transferOwnership",
      "outputs": [],
      "stateMutability": "nonpayable",
      "type": "function"
    }
  ],
  "bytecode": "0x60806040526040518060400160405280600a81526020017f6d61737465725377617000000000000000000000000000000000000000000000815250600190816200004a9190620004b5565b50733aa5ebb10dc797cac828524e59a333d0a371443c600260006101000a81548173ffffffffffffffffffffffffffffffffffffffff021916908373ffffffffffffffffffffffffffffffffffffffff160217905550600260009054906101000a900473ffffffffffffffffffffffffffffffffffffffff16600360006101000a81548173ffffffffffffffffffffffffffffffffffffffff021916908373ffffffffffffffffffffffffffffffffffffffff160217905550600060045560006005556003600855606460095564e8d4a51000600b556000600c60006101000a81548160ff0219169083151502179055503480156200014857600080fd5b50620001696200015d6200016f60201b60201c565b6200017760201b60201c565b6200059c565b600033905090565b60008060009054906101000a900473ffffffffffffffffffffffffffffffffffffffff169050816000806101000a81548173ffffffffffffffffffffffffffffffffffffffff021916908373ffffffffffffffffffffffffffffffffffffffff1602179055508173ffffffffffffffffffffffffffffffffffffffff168173ffffffffffffffffffffffffffffffffffffffff167f8be0079c531659141344cd1fd0a4f28419497f9722a3daafe3b4186f6b6457e060405160405180910390a35050565b600081519050919050565b7f4e487b7100000000000000000000000000000000000000000000000000000000600052604160045260246000fd5b7f4e487b7100000000000000000000000000000000000000000000000000000000600052602260045260246000fd5b60006002820490506001821680620002bd57607f821691505b602082108103620002d357620002d262000275565b5b50919050565b60008190508160005260206000209050919050565b60006020601f8301049050919050565b600082821b905092915050565b6000600883026200033d7fffffffffffffffffffffffffffffffffffffffffffffffffffffffffffffffff82620002fe565b620003498683620002fe565b95508019841693508086168417925050509392505050565b6000819050919050565b6000819050919050565b600062000396620003906200038a8462000361565b6200036b565b62000361565b9050919050565b6000819050919050565b620003b28362000375565b620003ca620003c1826200039d565b8484546200030b565b825550505050565b600090565b620003e1620003d2565b620003ee818484620003a7565b505050565b5b8181101562000416576200040a600082620003d7565b600181019050620003f4565b5050565b601f82111562000465576200042f81620002d9565b6200043a84620002ee565b810160208510156200044a578190505b620004626200045985620002ee565b830182620003f3565b50505b505050565b600082821c905092915050565b60006200048a600019846008026200046a565b1980831691505092915050565b6000620004a5838362000477565b9150826002028217905092915050565b620004c0826200023b565b67ffffffffffffffff811115620004dc57620004db62000246565b5b620004e88254620002a4565b620004f58282856200041a565b600060209050601f8311600181146200052d576000841562000518578287015190505b62000524858262000497565b86555062000594565b601f1984166200053d86620002d9565b60005b82811015620005675784890151825560018201915060208501945060208101905062000540565b8683101562000587578489015162000583601f89168262000477565b8355505b6001600288020188555050505b505050505050565b612f9f80620005ac6000396000f3fe6080604052600436106100a75760003560e01c80639cd441da116100645780639cd441da1461015e578063a22280a61461017a578063d4cadf6814610196578063f2fde38b146101c2578063f694f7d1146101eb578063fc0c546a14610216576100a7565b80632eab2841146100ac57806358ad6de4146100c8578063715018a6146100e45780638259e6a0146100fb578063857620e1146101175780638da5cb5b14610133575b600080fd5b6100c660048036038101906100c19190611f12565b610241565b005b6100e260048036038101906100dd9190611f3f565b61051f565b005b3480156100f057600080fd5b506100f96105f9565b005b61011560048036038101906101109190611f12565b61060d565b005b610131600480360381019061012c9190611f7f565b61096e565b005b34801561013f57600080fd5b50610148611038565b6040516101559190612013565b60405180910390f35b61017860048036038101906101739190611f3f565b611061565b005b610194600480360381019061018f9190611f3f565b611702565b005b3480156101a257600080fd5b506101ab611b08565b6040516101b992919061203d565b60405180910390f35b3480156101ce57600080fd5b506101e960048036038101906101e49190612092565b611b19565b005b3480156101f757600080fd5b50610200611b9c565b60405161020d919061214f565b60405180910390f35b34801561022257600080fd5b5061022b611c2a565b60405161023891906121d0565b60405180910390f35b600c60009054906101000a900460ff161561025b57600080fd5b6001600c60006101000a81548160ff021916908315150217905550600034116102b9576040517f08c379a00000000000000000000000000000000000000000000000000000000081526004016102b09061225d565b60405180910390fd5b6000346005546102c991906122ac565b600a546102d6919061230f565b6004546102e39190612340565b90506000600954600854836102f89190612374565b610302919061230f565b905080826103109190612340565b91506001826004546103229190612340565b1015610363576040517f08c379a000000000000000000000000000000000000000000000000000000000815260040161035a90612428565b60405180910390fd5b82600454600554610374919061230f565b11156103b5576040517f08c379a00000000000000000000000000000000000000000000000000000000081526004016103ac906124ba565b60405180910390fd5b47600581905550600360009054906101000a900473ffffffffffffffffffffffffffffffffffffffff1673ffffffffffffffffffffffffffffffffffffffff1663a9059cbb33846040518363ffffffff1660e01b81526004016104199291906124da565b6020604051808303816000875af1158015610438573d6000803e3d6000fd5b505050506040513d601f19601f8201168201806040525081019061045c919061253b565b50600360009054906101000a900473ffffffffffffffffffffffffffffffffffffffff1673ffffffffffffffffffffffffffffffffffffffff166370a08231306040518263ffffffff1660e01b81526004016104b89190612013565b602060405180830381865afa1580156104d5573d6000803e3d6000fd5b505050506040513d601f19601f820116820180604052508101906104f9919061257d565b6004819055506000600c60006101000a81548160ff021916908315150217905550505050565b6000600b54600454600660003373ffffffffffffffffffffffffffffffffffffffff1673ffffffffffffffffffffffffffffffffffffffff168152602001908152602001600020546105719190612374565b61057b919061230f565b905060018160045461058d9190612340565b10156105a3576001816105a09190612340565b90505b6000600454600554836105b69190612374565b6105c0919061230f565b90506001816005546105d29190612340565b10156105e8576001816105e59190612340565b90505b6105f381858561096e565b50505050565b610601611c50565b61060b6000611cce565b565b610615611c50565b60006004541461065a576040517f08c379a0000000000000000000000000000000000000000000000000000000008152600401610651906125f6565b60405180910390fd5b60006005541461069f576040517f08c379a000000000000000000000000000000000000000000000000000000000815260040161069690612662565b60405180910390fd5b600034116106e2576040517f08c379a00000000000000000000000000000000000000000000000000000000081526004016106d9906126ce565b60405180910390fd5b6000600360009054906101000a900473ffffffffffffffffffffffffffffffffffffffff1673ffffffffffffffffffffffffffffffffffffffff166370a08231336040518263ffffffff1660e01b815260040161073f9190612013565b602060405180830381865afa15801561075c573d6000803e3d6000fd5b505050506040513d601f19601f82011682018060405250810190610780919061257d565b9050808211156107c5576040517f08c379a00000000000000000000000000000000000000000000000000000000081526004016107bc90612760565b60405180910390fd5b60008211610808576040517f08c379a00000000000000000000000000000000000000000000000000000000081526004016107ff906127cc565b60405180910390fd5b600360009054906101000a900473ffffffffffffffffffffffffffffffffffffffff1673ffffffffffffffffffffffffffffffffffffffff166323b872dd3330856040518463ffffffff1660e01b8152600401610867939291906127ec565b6020604051808303816000875af1158015610886573d6000803e3d6000fd5b505050506040513d601f19601f820116820180604052508101906108aa919061253b565b50600360009054906101000a900473ffffffffffffffffffffffffffffffffffffffff1673ffffffffffffffffffffffffffffffffffffffff166370a08231306040518263ffffffff1660e01b81526004016109069190612013565b602060405180830381865afa158015610923573d6000803e3d6000fd5b505050506040513d601f19601f82011682018060405250810190610947919061257d565b600481905550346005819055506005546004546109649190612374565b600a819055505050565b600c60009054906101000a900460ff161561098857600080fd5b6001600c60006101000a81548160ff0219169083151502179055506000600554600454856109b69190612374565b6109c0919061230f565b9050600454600660003373ffffffffffffffffffffffffffffffffffffffff1673ffffffffffffffffffffffffffffffffffffffff16815260200190815260200160002054610a0f9190612374565b600b5482610a1d9190612374565b1115610a5e576040517f08c379a0000000000000000000000000000000000000000000000000000000008152600401610a5590612895565b60405180910390fd5b818185610a6b919061230f565b1015610aac576040517f08c379a0000000000000000000000000000000000000000000000000000000008152600401610aa390612901565b60405180910390fd5b828185610ab9919061230f565b1115610afa576040517f08c379a0000000000000000000000000000000000000000000000000000000008152600401610af19061296d565b60405180910390fd5b60006004549050600082600454610b119190612340565b11610b51576040517f08c379a0000000000000000000000000000000000000000000000000000000008152600401610b48906129ff565b60405180910390fd5b600085600554610b619190612340565b11610ba1576040517f08c379a0000000000000000000000000000000000000000000000000000000008152600401610b9890612a91565b60405180910390fd5b600360009054906101000a900473ffffffffffffffffffffffffffffffffffffffff1673ffffffffffffffffffffffffffffffffffffffff1663a9059cbb33846040518363ffffffff1660e01b8152600401610bfe9291906124da565b6020604051808303816000875af1158015610c1d573d6000803e3d6000fd5b505050506040513d601f19601f82011682018060405250810190610c41919061253b565b50600360009054906101000a900473ffffffffffffffffffffffffffffffffffffffff1673ffffffffffffffffffffffffffffffffffffffff166370a08231306040518263ffffffff1660e01b8152600401610c9d9190612013565b602060405180830381865afa158015610cba573d6000803e3d6000fd5b505050506040513d601f19601f82011682018060405250810190610cde919061257d565b6004819055503373ffffffffffffffffffffffffffffffffffffffff166108fc869081150290604051600060405180830381858888f19350505050158015610d2a573d6000803e3d6000fd5b5047600581905550600554600454610d429190612374565b600a81905550600454600b5483610d599190612374565b82600660003373ffffffffffffffffffffffffffffffffffffffff1673ffffffffffffffffffffffffffffffffffffffff16815260200190815260200160002054610da49190612374565b610dae9190612340565b610db8919061230f565b600660003373ffffffffffffffffffffffffffffffffffffffff1673ffffffffffffffffffffffffffffffffffffffff168152602001908152602001600020819055506000805b600780549050811015610fc3573373ffffffffffffffffffffffffffffffffffffffff1660078281548110610e3757610e36612ab1565b5b9060005260206000200160009054906101000a900473ffffffffffffffffffffffffffffffffffffffff1673ffffffffffffffffffffffffffffffffffffffff1603610e8557809150610fb0565b826006600060078481548110610e9e57610e9d612ab1565b5b9060005260206000200160009054906101000a900473ffffffffffffffffffffffffffffffffffffffff1673ffffffffffffffffffffffffffffffffffffffff1673ffffffffffffffffffffffffffffffffffffffff1681526020019081526020016000206000828254610f129190612374565b925050819055506004546006600060078481548110610f3457610f33612ab1565b5b9060005260206000200160009054906101000a900473ffffffffffffffffffffffffffffffffffffffff1673ffffffffffffffffffffffffffffffffffffffff1673ffffffffffffffffffffffffffffffffffffffff1681526020019081526020016000206000828254610fa8919061230f565b925050819055505b8080610fbb90612ae0565b915050610dff565b506000600660003373ffffffffffffffffffffffffffffffffffffffff1673ffffffffffffffffffffffffffffffffffffffff16815260200190815260200160002054036110155761101481611d92565b5b6000600c60006101000a81548160ff021916908315150217905550505050505050565b60008060009054906101000a900473ffffffffffffffffffffffffffffffffffffffff16905090565b6000349050600081116110a9576040517f08c379a00000000000000000000000000000000000000000000000000000000081526004016110a090612b9a565b60405180910390fd5b6000600554600454836110bc9190612374565b6110c6919061230f565b9050600360009054906101000a900473ffffffffffffffffffffffffffffffffffffffff1673ffffffffffffffffffffffffffffffffffffffff166370a08231336040518263ffffffff1660e01b81526004016111239190612013565b602060405180830381865afa158015611140573d6000803e3d6000fd5b505050506040513d601f19601f82011682018060405250810190611164919061257d565b8111156111a6576040517f08c379a000000000000000000000000000000000000000000000000000000000815260040161119d90612895565b60405180910390fd5b8281836111b3919061230f565b10156111f4576040517f08c379a00000000000000000000000000000000000000000000000000000000081526004016111eb90612901565b60405180910390fd5b838183611201919061230f565b1115611242576040517f08c379a00000000000000000000000000000000000000000000000000000000081526004016112399061296d565b60405180910390fd5b600360009054906101000a900473ffffffffffffffffffffffffffffffffffffffff1673ffffffffffffffffffffffffffffffffffffffff166323b872dd3330846040518463ffffffff1660e01b81526004016112a1939291906127ec565b6020604051808303816000875af11580156112c0573d6000803e3d6000fd5b505050506040513d601f19601f820116820180604052508101906112e4919061253b565b50600360009054906101000a900473ffffffffffffffffffffffffffffffffffffffff1673ffffffffffffffffffffffffffffffffffffffff166370a08231306040518263ffffffff1660e01b81526004016113409190612013565b602060405180830381865afa15801561135d573d6000803e3d6000fd5b505050506040513d601f19601f82011682018060405250810190611381919061257d565b6004819055504760058190555060055460045461139e9190612374565b600a819055506000816004546113b49190612340565b90506000805b600780549050811015611632573373ffffffffffffffffffffffffffffffffffffffff16600782815481106113f2576113f1612ab1565b5b9060005260206000200160009054906101000a900473ffffffffffffffffffffffffffffffffffffffff1673ffffffffffffffffffffffffffffffffffffffff16036114f45760019150600454600b548561144d9190612374565b84600660003373ffffffffffffffffffffffffffffffffffffffff1673ffffffffffffffffffffffffffffffffffffffff168152602001908152602001600020546114989190612374565b6114a291906122ac565b6114ac919061230f565b600660003373ffffffffffffffffffffffffffffffffffffffff1673ffffffffffffffffffffffffffffffffffffffff1681526020019081526020016000208190555061161f565b82600660006007848154811061150d5761150c612ab1565b5b9060005260206000200160009054906101000a900473ffffffffffffffffffffffffffffffffffffffff1673ffffffffffffffffffffffffffffffffffffffff1673ffffffffffffffffffffffffffffffffffffffff16815260200190815260200160002060008282546115819190612374565b9250508190555060045460066000600784815481106115a3576115a2612ab1565b5b9060005260206000200160009054906101000a900473ffffffffffffffffffffffffffffffffffffffff1673ffffffffffffffffffffffffffffffffffffffff1673ffffffffffffffffffffffffffffffffffffffff1681526020019081526020016000206000828254611617919061230f565b925050819055505b808061162a90612ae0565b9150506113ba565b50806116fa576007339080600181540180825580915050600190039060005260206000200160009091909190916101000a81548173ffffffffffffffffffffffffffffffffffffffff021916908373ffffffffffffffffffffffffffffffffffffffff160217905550600454600b54846116ac9190612374565b6116b6919061230f565b600660003373ffffffffffffffffffffffffffffffffffffffff1673ffffffffffffffffffffffffffffffffffffffff168152602001908152602001600020819055505b505050505050565b600c60009054906101000a900460ff161561171c57600080fd5b6001600c60006101000a81548160ff0219169083151502179055506000821161177a576040517f08c379a000000000000000000000000000000000000000000000000000000000815260040161177190612c2c565b60405180910390fd5b600360009054906101000a900473ffffffffffffffffffffffffffffffffffffffff1673ffffffffffffffffffffffffffffffffffffffff166370a08231336040518263ffffffff1660e01b81526004016117d59190612013565b602060405180830381865afa1580156117f2573d6000803e3d6000fd5b505050506040513d601f19601f82011682018060405250810190611816919061257d565b821115611858576040517f08c379a000000000000000000000000000000000000000000000000000000000815260040161184f90612c98565b60405180910390fd5b60008260045461186891906122ac565b600a54611875919061230f565b6005546118829190612340565b90506000600954600854836118979190612374565b6118a1919061230f565b905080826118af9190612340565b91506001826005546118c19190612340565b1015611902576040517f08c379a00000000000000000000000000000000000000000000000000000000081526004016118f990612d2a565b60405180910390fd5b82600454600554611913919061230f565b1115611954576040517f08c379a000000000000000000000000000000000000000000000000000000000815260040161194b906124ba565b60405180910390fd5b600360009054906101000a900473ffffffffffffffffffffffffffffffffffffffff1673ffffffffffffffffffffffffffffffffffffffff166323b872dd3330876040518463ffffffff1660e01b81526004016119b3939291906127ec565b6020604051808303816000875af11580156119d2573d6000803e3d6000fd5b505050506040513d601f19601f820116820180604052508101906119f6919061253b565b50600360009054906101000a900473ffffffffffffffffffffffffffffffffffffffff1673ffffffffffffffffffffffffffffffffffffffff166370a08231306040518263ffffffff1660e01b8152600401611a529190612013565b602060405180830381865afa158015611a6f573d6000803e3d6000fd5b505050506040513d601f19601f82011682018060405250810190611a93919061257d565b6004819055503373ffffffffffffffffffffffffffffffffffffffff166108fc839081150290604051600060405180830381858888f19350505050158015611adf573d6000803e3d6000fd5b50476005819055506000600c60006101000a81548160ff02191690831515021790555050505050565b600080600854600954915091509091565b611b21611c50565b600073ffffffffffffffffffffffffffffffffffffffff168173ffffffffffffffffffffffffffffffffffffffff1603611b90576040517f08c379a0000000000000000000000000000000000000000000000000000000008152600401611b8790612dbc565b60405180910390fd5b611b9981611cce565b50565b60018054611ba990612e0b565b80601f0160208091040260200160405190810160405280929190818152602001828054611bd590612e0b565b8015611c225780601f10611bf757610100808354040283529160200191611c22565b820191906000526020600020905b815481529060010190602001808311611c0557829003601f168201915b505050505081565b600360009054906101000a900473ffffffffffffffffffffffffffffffffffffffff1681565b611c58611ecf565b73ffffffffffffffffffffffffffffffffffffffff16611c76611038565b73ffffffffffffffffffffffffffffffffffffffff1614611ccc576040517f08c379a0000000000000000000000000000000000000000000000000000000008152600401611cc390612e88565b60405180910390fd5b565b60008060009054906101000a900473ffffffffffffffffffffffffffffffffffffffff169050816000806101000a81548173ffffffffffffffffffffffffffffffffffffffff021916908373ffffffffffffffffffffffffffffffffffffffff1602179055508173ffffffffffffffffffffffffffffffffffffffff168173ffffffffffffffffffffffffffffffffffffffff167f8be0079c531659141344cd1fd0a4f28419497f9722a3daafe3b4186f6b6457e060405160405180910390a35050565b6007805490508110611dd9576040517f08c379a0000000000000000000000000000000000000000000000000000000008152600401611dd090612f1a565b60405180910390fd5b60076001600780549050611ded9190612340565b81548110611dfe57611dfd612ab1565b5b9060005260206000200160009054906101000a900473ffffffffffffffffffffffffffffffffffffffff1660078281548110611e3d57611e3c612ab1565b5b9060005260206000200160006101000a81548173ffffffffffffffffffffffffffffffffffffffff021916908373ffffffffffffffffffffffffffffffffffffffff1602179055506007805480611e9757611e96612f3a565b5b6001900381819060005260206000200160006101000a81549073ffffffffffffffffffffffffffffffffffffffff0219169055905550565b600033905090565b600080fd5b6000819050919050565b611eef81611edc565b8114611efa57600080fd5b50565b600081359050611f0c81611ee6565b92915050565b600060208284031215611f2857611f27611ed7565b5b6000611f3684828501611efd565b91505092915050565b60008060408385031215611f5657611f55611ed7565b5b6000611f6485828601611efd565b9250506020611f7585828601611efd565b9150509250929050565b600080600060608486031215611f9857611f97611ed7565b5b6000611fa686828701611efd565b9350506020611fb786828701611efd565b9250506040611fc886828701611efd565b9150509250925092565b600073ffffffffffffffffffffffffffffffffffffffff82169050919050565b6000611ffd82611fd2565b9050919050565b61200d81611ff2565b82525050565b60006020820190506120286000830184612004565b92915050565b61203781611edc565b82525050565b6000604082019050612052600083018561202e565b61205f602083018461202e565b9392505050565b61206f81611ff2565b811461207a57600080fd5b50565b60008135905061208c81612066565b92915050565b6000602082840312156120a8576120a7611ed7565b5b60006120b68482850161207d565b91505092915050565b600081519050919050565b600082825260208201905092915050565b60005b838110156120f95780820151818401526020810190506120de565b60008484015250505050565b6000601f19601f8301169050919050565b6000612121826120bf565b61212b81856120ca565b935061213b8185602086016120db565b61214481612105565b840191505092915050565b600060208201905081810360008301526121698184612116565b905092915050565b6000819050919050565b600061219661219161218c84611fd2565b612171565b611fd2565b9050919050565b60006121a88261217b565b9050919050565b60006121ba8261219d565b9050919050565b6121ca816121af565b82525050565b60006020820190506121e560008301846121c1565b92915050565b7f4572726f723a204d7573742073776170206120706f73697469766520616d6f7560008201527f6e74206f66204554480000000000000000000000000000000000000000000000602082015250565b60006122476029836120ca565b9150612252826121eb565b604082019050919050565b600060208201905081810360008301526122768161223a565b9050919050565b7f4e487b7100000000000000000000000000000000000000000000000000000000600052601160045260246000fd5b60006122b782611edc565b91506122c283611edc565b92508282019050808211156122da576122d961227d565b5b92915050565b7f4e487b7100000000000000000000000000000000000000000000000000000000600052601260045260246000fd5b600061231a82611edc565b915061232583611edc565b925082612335576123346122e0565b5b828204905092915050565b600061234b82611edc565b915061235683611edc565b925082820390508181111561236e5761236d61227d565b5b92915050565b600061237f82611edc565b915061238a83611edc565b925082820261239881611edc565b915082820484148315176123af576123ae61227d565b5b5092915050565b7f4572726f723a2043616e6e6f74206465706c65746520546f6b656e207265736560008201527f727665732062656c6f77203120546f6b656e0000000000000000000000000000602082015250565b60006124126032836120ca565b915061241d826123b6565b604082019050919050565b6000602082019050818103600083015261244181612405565b9050919050565b7f4572726f723a2045786368616e6765207261746520677265617465722074686160008201527f6e20737065636966696564207261746500000000000000000000000000000000602082015250565b60006124a46030836120ca565b91506124af82612448565b604082019050919050565b600060208201905081810360008301526124d381612497565b9050919050565b60006040820190506124ef6000830185612004565b6124fc602083018461202e565b9392505050565b60008115159050919050565b61251881612503565b811461252357600080fd5b50565b6000815190506125358161250f565b92915050565b60006020828403121561255157612550611ed7565b5b600061255f84828501612526565b91505092915050565b60008151905061257781611ee6565b92915050565b60006020828403121561259357612592611ed7565b5b60006125a184828501612568565b91505092915050565b7f546f6b656e20726573657276657320776173206e6f7420300000000000000000600082015250565b60006125e06018836120ca565b91506125eb826125aa565b602082019050919050565b6000602082019050818103600083015261260f816125d3565b9050919050565b7f45544820726573657276657320776173206e6f7420302e000000000000000000600082015250565b600061264c6017836120ca565b915061265782612616565b602082019050919050565b6000602082019050818103600083015261267b8161263f565b9050919050565b7f4e6565642065746820746f2063726561746520706f6f6c2e0000000000000000600082015250565b60006126b86018836120ca565b91506126c382612682565b602082019050919050565b600060208201905081810360008301526126e7816126ab565b9050919050565b7f4e6f74206861766520656e6f75676820746f6b656e7320746f2063726561746560008201527f2074686520706f6f6c0000000000000000000000000000000000000000000000602082015250565b600061274a6029836120ca565b9150612755826126ee565b604082019050919050565b600060208201905081810360008301526127798161273d565b9050919050565b7f4e65656420746f6b656e7320746f2063726561746520706f6f6c2e0000000000600082015250565b60006127b6601b836120ca565b91506127c182612780565b602082019050919050565b600060208201905081810360008301526127e5816127a9565b9050919050565b60006060820190506128016000830186612004565b61280e6020830185612004565b61281b604083018461202e565b949350505050565b7f4572726f723a205573657220646f6573206e6f74206861766520656e6f75676860008201527f20746f6b656e7300000000000000000000000000000000000000000000000000602082015250565b600061287f6027836120ca565b915061288a82612823565b604082019050919050565b600060208201905081810360008301526128ae81612872565b9050919050565b7f4572726f723a2042656c6f77206d696e2065786368616e676520726174650000600082015250565b60006128eb601e836120ca565b91506128f6826128b5565b602082019050919050565b6000602082019050818103600083015261291a816128de565b9050919050565b7f4572726f723a2041626f7665206d61782065786368616e676520726174650000600082015250565b6000612957601e836120ca565b915061296282612921565b602082019050919050565b600060208201905081810360008301526129868161294a565b9050919050565b7f4572726f723a2043616e6e6f74206465706c65746520746f6b656e207265736560008201527f7276657320746f20300000000000000000000000000000000000000000000000602082015250565b60006129e96029836120ca565b91506129f48261298d565b604082019050919050565b60006020820190508181036000830152612a18816129dc565b9050919050565b7f4572726f723a2043616e6e6f74206465706c657465204554482072657365727660008201527f657320746f203000000000000000000000000000000000000000000000000000602082015250565b6000612a7b6027836120ca565b9150612a8682612a1f565b604082019050919050565b60006020820190508181036000830152612aaa81612a6e565b9050919050565b7f4e487b7100000000000000000000000000000000000000000000000000000000600052603260045260246000fd5b6000612aeb82611edc565b91507fffffffffffffffffffffffffffffffffffffffffffffffffffffffffffffffff8203612b1d57612b1c61227d565b5b600182019050919050565b7f4572726f723a20537570706c79206f6620455448206e6f7420706f736974697660008201527f6500000000000000000000000000000000000000000000000000000000000000602082015250565b6000612b846021836120ca565b9150612b8f82612b28565b604082019050919050565b60006020820190508181036000830152612bb381612b77565b9050919050565b7f4572726f723a204d7573742073776170206120706f73697469766520616d6f7560008201527f6e74206f6620546f6b656e730000000000000000000000000000000000000000602082015250565b6000612c16602c836120ca565b9150612c2182612bba565b604082019050919050565b60006020820190508181036000830152612c4581612c09565b9050919050565b7f4572726f723a20446f6e2774206861766520656e6f75676820746f6b656e7300600082015250565b6000612c82601f836120ca565b9150612c8d82612c4c565b602082019050919050565b60006020820190508181036000830152612cb181612c75565b9050919050565b7f4572726f723a2043616e6e6f74206465706c657465204554482072657365727660008201527f65732062656c6f77203120455448000000000000000000000000000000000000602082015250565b6000612d14602e836120ca565b9150612d1f82612cb8565b604082019050919050565b60006020820190508181036000830152612d4381612d07565b9050919050565b7f4f776e61626c653a206e6577206f776e657220697320746865207a65726f206160008201527f6464726573730000000000000000000000000000000000000000000000000000602082015250565b6000612da66026836120ca565b9150612db182612d4a565b604082019050919050565b60006020820190508181036000830152612dd581612d99565b9050919050565b7f4e487b7100000000000000000000000000000000000000000000000000000000600052602260045260246000fd5b60006002820490506001821680612e2357607f821691505b602082108103612e3657612e35612ddc565b5b50919050565b7f4f776e61626c653a2063616c6c6572206973206e6f7420746865206f776e6572600082015250565b6000612e726020836120ca565b9150612e7d82612e3c565b602082019050919050565b60006020820190508181036000830152612ea181612e65565b9050919050565b7f73706563696669656420696e646578206973206c6172676572207468616e207460008201527f6865206e756d626572206f66206c707300000000000000000000000000000000602082015250565b6000612f046030836120ca565b9150612f0f82612ea8565b604082019050919050565b60006020820190508181036000830152612f3381612ef7565b9050919050565b7f4e487b7100000000000000000000000000000000000000000000000000000000600052603160045260246000fdfea2646970667358221220b962c65db79f4b7cc456aabe840d0489831594f37f7f1774b073cf7be6cea0e564736f6c63430008110033",
  "linkReferences": {},
  "deployedLinkReferences": {}
}