{
  "_format": "hh-sol-artifact-1",
  "contractName": "TokenExchange",
  "sourceName": "contracts/exchange.sol",
  "abi": [
    {
      "inputs": [],
      "stateMutability": "nonpayable",
      "type": "constructor"
    },
    {
      "anonymous": false,
      "inputs": [
        {
          "indexed": true,
          "internalType": "address",
          "name": "previousOwner",
          "type": "address"
        },
        {
          "indexed": true,
          "internalType": "address",
          "name": "newOwner",
          "type": "address"
        }
      ],
      "name": "OwnershipTransferred",
      "type": "event"
    },
    {
      "anonymous": false,
      "inputs": [
        {
          "indexed": false,
          "internalType": "uint256",
          "name": "number",
          "type": "uint256"
        }
      ],
      "name": "log",
      "type": "event"
    },
    {
      "inputs": [
        {
          "internalType": "uint256",
          "name": "max_exchange_rate",
          "type": "uint256"
        },
        {
          "internalType": "uint256",
          "name": "min_exchange_rate",
          "type": "uint256"
        }
      ],
      "name": "addLiquidity",
      "outputs": [],
      "stateMutability": "payable",
      "type": "function"
    },
    {
      "inputs": [
        {
          "internalType": "uint256",
          "name": "amountTokens",
          "type": "uint256"
        }
      ],
      "name": "createPool",
      "outputs": [],
      "stateMutability": "payable",
      "type": "function"
    },
    {
      "inputs": [],
      "name": "eth_reserves",
      "outputs": [
        {
          "internalType": "uint256",
          "name": "",
          "type": "uint256"
        }
      ],
      "stateMutability": "view",
      "type": "function"
    },
    {
      "inputs": [],
      "name": "exchange_name",
      "outputs": [
        {
          "internalType": "string",
          "name": "",
          "type": "string"
        }
      ],
      "stateMutability": "view",
      "type": "function"
    },
    {
      "inputs": [],
      "name": "getLps",
      "outputs": [
        {
          "internalType": "uint256",
          "name": "",
          "type": "uint256"
        }
      ],
      "stateMutability": "view",
      "type": "function"
    },
    {
      "inputs": [],
      "name": "getSwapFee",
      "outputs": [
        {
          "internalType": "uint256",
          "name": "",
          "type": "uint256"
        },
        {
          "internalType": "uint256",
          "name": "",
          "type": "uint256"
        }
      ],
      "stateMutability": "view",
      "type": "function"
    },
    {
      "inputs": [
        {
          "internalType": "uint256",
          "name": "",
          "type": "uint256"
        }
      ],
      "name": "lp_providers",
      "outputs": [
        {
          "internalType": "address",
          "name": "",
          "type": "address"
        }
      ],
      "stateMutability": "view",
      "type": "function"
    },
    {
      "inputs": [],
      "name": "owner",
      "outputs": [
        {
          "internalType": "address",
          "name": "",
          "type": "address"
        }
      ],
      "stateMutability": "view",
      "type": "function"
    },
    {
      "inputs": [
        {
          "internalType": "uint256",
          "name": "max_exchange_rate",
          "type": "uint256"
        },
        {
          "internalType": "uint256",
          "name": "min_exchange_rate",
          "type": "uint256"
        }
      ],
      "name": "removeAllLiquidity",
      "outputs": [],
      "stateMutability": "payable",
      "type": "function"
    },
    {
      "inputs": [
        {
          "internalType": "uint256",
          "name": "amountETH",
          "type": "uint256"
        },
        {
          "internalType": "uint256",
          "name": "max_exchange_rate",
          "type": "uint256"
        },
        {
          "internalType": "uint256",
          "name": "min_exchange_rate",
          "type": "uint256"
        }
      ],
      "name": "removeLiquidity",
      "outputs": [],
      "stateMutability": "payable",
      "type": "function"
    },
    {
      "inputs": [],
      "name": "renounceOwnership",
      "outputs": [],
      "stateMutability": "nonpayable",
      "type": "function"
    },
    {
      "inputs": [
        {
          "internalType": "uint256",
          "name": "max_exchange_rate",
          "type": "uint256"
        }
      ],
      "name": "swapETHForTokens",
      "outputs": [],
      "stateMutability": "payable",
      "type": "function"
    },
    {
      "inputs": [
        {
          "internalType": "uint256",
          "name": "amountTokens",
          "type": "uint256"
        },
        {
          "internalType": "uint256",
          "name": "max_exchange_rate",
          "type": "uint256"
        }
      ],
      "name": "swapTokensForETH",
      "outputs": [],
      "stateMutability": "payable",
      "type": "function"
    },
    {
      "inputs": [],
      "name": "token",
      "outputs": [
        {
          "internalType": "contract Token",
          "name": "",
          "type": "address"
        }
      ],
      "stateMutability": "view",
      "type": "function"
    },
    {
      "inputs": [],
      "name": "token_reserves",
      "outputs": [
        {
          "internalType": "uint256",
          "name": "",
          "type": "uint256"
        }
      ],
      "stateMutability": "view",
      "type": "function"
    },
    {
      "inputs": [
        {
          "internalType": "address",
          "name": "newOwner",
          "type": "address"
        }
      ],
      "name": "transferOwnership",
      "outputs": [],
      "stateMutability": "nonpayable",
      "type": "function"
    }
  ],
  "bytecode": "0x60806040526040518060400160405280600781526020017f5a656e5377617000000000000000000000000000000000000000000000000000815250600190816200004a9190620004b5565b50735fbdb2315678afecb367f032d93f642f64180aa3600260006101000a81548173ffffffffffffffffffffffffffffffffffffffff021916908373ffffffffffffffffffffffffffffffffffffffff160217905550600260009054906101000a900473ffffffffffffffffffffffffffffffffffffffff16600360006101000a81548173ffffffffffffffffffffffffffffffffffffffff021916908373ffffffffffffffffffffffffffffffffffffffff160217905550600060045560006005556003600855606460095564e8d4a51000600a556000600b60006101000a81548160ff0219169083151502179055503480156200014857600080fd5b50620001696200015d6200016f60201b60201c565b6200017760201b60201c565b6200059c565b600033905090565b60008060009054906101000a900473ffffffffffffffffffffffffffffffffffffffff169050816000806101000a81548173ffffffffffffffffffffffffffffffffffffffff021916908373ffffffffffffffffffffffffffffffffffffffff1602179055508173ffffffffffffffffffffffffffffffffffffffff168173ffffffffffffffffffffffffffffffffffffffff167f8be0079c531659141344cd1fd0a4f28419497f9722a3daafe3b4186f6b6457e060405160405180910390a35050565b600081519050919050565b7f4e487b7100000000000000000000000000000000000000000000000000000000600052604160045260246000fd5b7f4e487b7100000000000000000000000000000000000000000000000000000000600052602260045260246000fd5b60006002820490506001821680620002bd57607f821691505b602082108103620002d357620002d262000275565b5b50919050565b60008190508160005260206000209050919050565b60006020601f8301049050919050565b600082821b905092915050565b6000600883026200033d7fffffffffffffffffffffffffffffffffffffffffffffffffffffffffffffffff82620002fe565b620003498683620002fe565b95508019841693508086168417925050509392505050565b6000819050919050565b6000819050919050565b600062000396620003906200038a8462000361565b6200036b565b62000361565b9050919050565b6000819050919050565b620003b28362000375565b620003ca620003c1826200039d565b8484546200030b565b825550505050565b600090565b620003e1620003d2565b620003ee818484620003a7565b505050565b5b8181101562000416576200040a600082620003d7565b600181019050620003f4565b5050565b601f82111562000465576200042f81620002d9565b6200043a84620002ee565b810160208510156200044a578190505b620004626200045985620002ee565b830182620003f3565b50505b505050565b600082821c905092915050565b60006200048a600019846008026200046a565b1980831691505092915050565b6000620004a5838362000477565b9150826002028217905092915050565b620004c0826200023b565b67ffffffffffffffff811115620004dc57620004db62000246565b5b620004e88254620002a4565b620004f58282856200041a565b600060209050601f8311600181146200052d576000841562000518578287015190505b62000524858262000497565b86555062000594565b601f1984166200053d86620002d9565b60005b82811015620005675784890151825560018201915060208501945060208101905062000540565b8683101562000587578489015162000583601f89168262000477565b8355505b6001600288020188555050505b505050505050565b61346880620005ac6000396000f3fe6080604052600436106100f35760003560e01c80639adb3b971161008a578063d4cadf6811610059578063d4cadf68146102a0578063f2fde38b146102cc578063f694f7d1146102f5578063fc0c546a14610320576100f3565b80639adb3b97146102005780639cd441da1461022b578063a22280a614610247578063bc53cea114610263576100f3565b80638259e6a0116100c65780638259e6a014610172578063857620e11461018e5780638da5cb5b146101aa57806397ba499f146101d5576100f3565b80632eab2841146100f857806358ad6de414610114578063715018a61461013057806380e1a78514610147575b600080fd5b610112600480360381019061010d91906123a0565b61034b565b005b61012e600480360381019061012991906123cd565b61068a565b005b34801561013c57600080fd5b5061014561072f565b005b34801561015357600080fd5b5061015c610743565b604051610169919061241c565b60405180910390f35b61018c600480360381019061018791906123a0565b61082d565b005b6101a860048036038101906101a39190612437565b610baf565b005b3480156101b657600080fd5b506101bf611429565b6040516101cc91906124cb565b60405180910390f35b3480156101e157600080fd5b506101ea611452565b6040516101f7919061241c565b60405180910390f35b34801561020c57600080fd5b50610215611458565b604051610222919061241c565b60405180910390f35b610245600480360381019061024091906123cd565b61145e565b005b610261600480360381019061025c91906123cd565b611af0565b005b34801561026f57600080fd5b5061028a600480360381019061028591906123a0565b611f57565b60405161029791906124cb565b60405180910390f35b3480156102ac57600080fd5b506102b5611f96565b6040516102c39291906124e6565b60405180910390f35b3480156102d857600080fd5b506102f360048036038101906102ee919061253b565b611fa7565b005b34801561030157600080fd5b5061030a61202a565b60405161031791906125f8565b60405180910390f35b34801561032c57600080fd5b506103356120b8565b6040516103429190612679565b60405180910390f35b600b60009054906101000a900460ff161561039b576040517f08c379a0000000000000000000000000000000000000000000000000000000008152600401610392906126e0565b60405180910390fd5b6001600b60006101000a81548160ff021916908315150217905550600160045410156103fc576040517f08c379a00000000000000000000000000000000000000000000000000000000081526004016103f39061274c565b60405180910390fd5b6000341161043f576040517f08c379a0000000000000000000000000000000000000000000000000000000008152600401610436906127de565b60405180910390fd5b80600454600a54600554610453919061282d565b61045d919061289e565b111561049e576040517f08c379a000000000000000000000000000000000000000000000000000000000815260040161049590612941565b60405180910390fd5b600060643460085460646104b29190612961565b6104bc919061282d565b6104c6919061289e565b6005546104d39190612995565b6005546004546104e3919061282d565b6104ed919061289e565b6004546104fa9190612961565b905060008160045461050c9190612961565b036105215760018161051e9190612961565b90505b47600581905550600360009054906101000a900473ffffffffffffffffffffffffffffffffffffffff1673ffffffffffffffffffffffffffffffffffffffff1663a9059cbb33836040518363ffffffff1660e01b81526004016105859291906129c9565b6020604051808303816000875af11580156105a4573d6000803e3d6000fd5b505050506040513d601f19601f820116820180604052508101906105c89190612a2a565b50600360009054906101000a900473ffffffffffffffffffffffffffffffffffffffff1673ffffffffffffffffffffffffffffffffffffffff166370a08231306040518263ffffffff1660e01b815260040161062491906124cb565b602060405180830381865afa158015610641573d6000803e3d6000fd5b505050506040513d601f19601f820116820180604052508101906106659190612a6c565b600481905550506000600b60006101000a81548160ff02191690831515021790555050565b6000600a54600554600660003373ffffffffffffffffffffffffffffffffffffffff1673ffffffffffffffffffffffffffffffffffffffff168152602001908152602001600020546106dc919061282d565b6106e6919061289e565b90507ff82c50f1848136e6c140b186ea0c768b7deda5efffe42c25e96336a90b26c74481604051610717919061241c565b60405180910390a161072a818484610baf565b505050565b6107376120de565b610741600061215c565b565b600080600090505b600780549050811015610824573373ffffffffffffffffffffffffffffffffffffffff166007828154811061078357610782612a99565b5b9060005260206000200160009054906101000a900473ffffffffffffffffffffffffffffffffffffffff1673ffffffffffffffffffffffffffffffffffffffff160361081157600660003373ffffffffffffffffffffffffffffffffffffffff1673ffffffffffffffffffffffffffffffffffffffff1681526020019081526020016000205491505061082a565b808061081c90612ac8565b91505061074b565b50600090505b90565b6108356120de565b60006004541461087a576040517f08c379a000000000000000000000000000000000000000000000000000000000815260040161087190612b5c565b60405180910390fd5b6000600554146108bf576040517f08c379a00000000000000000000000000000000000000000000000000000000081526004016108b690612bc8565b60405180910390fd5b60003411610902576040517f08c379a00000000000000000000000000000000000000000000000000000000081526004016108f990612c34565b60405180910390fd5b6000600360009054906101000a900473ffffffffffffffffffffffffffffffffffffffff1673ffffffffffffffffffffffffffffffffffffffff166370a08231336040518263ffffffff1660e01b815260040161095f91906124cb565b602060405180830381865afa15801561097c573d6000803e3d6000fd5b505050506040513d601f19601f820116820180604052508101906109a09190612a6c565b9050808211156109e5576040517f08c379a00000000000000000000000000000000000000000000000000000000081526004016109dc90612cc6565b60405180910390fd5b60008211610a28576040517f08c379a0000000000000000000000000000000000000000000000000000000008152600401610a1f90612d32565b60405180910390fd5b600360009054906101000a900473ffffffffffffffffffffffffffffffffffffffff1673ffffffffffffffffffffffffffffffffffffffff166323b872dd3330856040518463ffffffff1660e01b8152600401610a8793929190612d52565b6020604051808303816000875af1158015610aa6573d6000803e3d6000fd5b505050506040513d601f19601f82011682018060405250810190610aca9190612a2a565b50600360009054906101000a900473ffffffffffffffffffffffffffffffffffffffff1673ffffffffffffffffffffffffffffffffffffffff166370a08231306040518263ffffffff1660e01b8152600401610b2691906124cb565b602060405180830381865afa158015610b43573d6000803e3d6000fd5b505050506040513d601f19601f82011682018060405250810190610b679190612a6c565b600481905550346005819055507ff82c50f1848136e6c140b186ea0c768b7deda5efffe42c25e96336a90b26c74434604051610ba3919061241c565b60405180910390a15050565b600b60009054906101000a900460ff1615610bff576040517f08c379a0000000000000000000000000000000000000000000000000000000008152600401610bf6906126e0565b60405180910390fd5b6001600b60006101000a81548160ff02191690831515021790555060016005541015610c60576040517f08c379a0000000000000000000000000000000000000000000000000000000008152600401610c5790612dd5565b60405180910390fd5b60016004541015610ca6576040517f08c379a0000000000000000000000000000000000000000000000000000000008152600401610c9d9061274c565b60405180910390fd5b600060055460045485610cb9919061282d565b610cc3919061289e565b9050600454600660003373ffffffffffffffffffffffffffffffffffffffff1673ffffffffffffffffffffffffffffffffffffffff16815260200190815260200160002054610d12919061282d565b600a5482610d20919061282d565b1115610d61576040517f08c379a0000000000000000000000000000000000000000000000000000000008152600401610d5890612e67565b60405180910390fd5b8181600a5486610d71919061282d565b610d7b919061289e565b1015610dbc576040517f08c379a0000000000000000000000000000000000000000000000000000000008152600401610db390612ed3565b60405180910390fd5b8281600a5486610dcc919061282d565b610dd6919061289e565b1115610e17576040517f08c379a0000000000000000000000000000000000000000000000000000000008152600401610e0e90612f3f565b60405180910390fd5b60006004549050600082600454610e2e9190612961565b11610e6e576040517f08c379a0000000000000000000000000000000000000000000000000000000008152600401610e6590612fd1565b60405180910390fd5b600085600554610e7e9190612961565b11610ebe576040517f08c379a0000000000000000000000000000000000000000000000000000000008152600401610eb590613063565b60405180910390fd5b600082600454610ece9190612961565b03610ee357600182610ee09190612961565b91505b600085600554610ef39190612961565b03610f0857600185610f059190612961565b94505b600360009054906101000a900473ffffffffffffffffffffffffffffffffffffffff1673ffffffffffffffffffffffffffffffffffffffff1663a9059cbb33846040518363ffffffff1660e01b8152600401610f659291906129c9565b6020604051808303816000875af1158015610f84573d6000803e3d6000fd5b505050506040513d601f19601f82011682018060405250810190610fa89190612a2a565b50600360009054906101000a900473ffffffffffffffffffffffffffffffffffffffff1673ffffffffffffffffffffffffffffffffffffffff166370a08231306040518263ffffffff1660e01b815260040161100491906124cb565b602060405180830381865afa158015611021573d6000803e3d6000fd5b505050506040513d601f19601f820116820180604052508101906110459190612a6c565b6004819055503373ffffffffffffffffffffffffffffffffffffffff166108fc869081150290604051600060405180830381858888f19350505050158015611091573d6000803e3d6000fd5b50476005819055506000600454600a54846110ac919061282d565b83600660003373ffffffffffffffffffffffffffffffffffffffff1673ffffffffffffffffffffffffffffffffffffffff168152602001908152602001600020546110f7919061282d565b6111019190612961565b61110b919061289e565b9050600a546064846004546111209190612961565b8361112b919061282d565b611135919061289e565b10806111665750600a5460648760055461114f9190612961565b8361115a919061282d565b611164919061289e565b105b156111b5576000600660003373ffffffffffffffffffffffffffffffffffffffff1673ffffffffffffffffffffffffffffffffffffffff168152602001908152602001600020819055506111fa565b80600660003373ffffffffffffffffffffffffffffffffffffffff1673ffffffffffffffffffffffffffffffffffffffff168152602001908152602001600020819055505b600080600090505b6007805490508110156113b3573373ffffffffffffffffffffffffffffffffffffffff166007828154811061123a57611239612a99565b5b9060005260206000200160009054906101000a900473ffffffffffffffffffffffffffffffffffffffff1673ffffffffffffffffffffffffffffffffffffffff1603611288578091506113a0565b6004548460066000600785815481106112a4576112a3612a99565b5b9060005260206000200160009054906101000a900473ffffffffffffffffffffffffffffffffffffffff1673ffffffffffffffffffffffffffffffffffffffff1673ffffffffffffffffffffffffffffffffffffffff16815260200190815260200160002054611314919061282d565b61131e919061289e565b600660006007848154811061133657611335612a99565b5b9060005260206000200160009054906101000a900473ffffffffffffffffffffffffffffffffffffffff1673ffffffffffffffffffffffffffffffffffffffff1673ffffffffffffffffffffffffffffffffffffffff168152602001908152602001600020819055505b80806113ab90612ac8565b915050611202565b506000600660003373ffffffffffffffffffffffffffffffffffffffff1673ffffffffffffffffffffffffffffffffffffffff16815260200190815260200160002054036114055761140481612220565b5b505050506000600b60006101000a81548160ff021916908315150217905550505050565b60008060009054906101000a900473ffffffffffffffffffffffffffffffffffffffff16905090565b60055481565b60045481565b6000349050600081116114a6576040517f08c379a000000000000000000000000000000000000000000000000000000000815260040161149d906130f5565b60405180910390fd5b6000600554600454836114b9919061282d565b6114c3919061289e565b9050600360009054906101000a900473ffffffffffffffffffffffffffffffffffffffff1673ffffffffffffffffffffffffffffffffffffffff166370a08231336040518263ffffffff1660e01b815260040161152091906124cb565b602060405180830381865afa15801561153d573d6000803e3d6000fd5b505050506040513d601f19601f820116820180604052508101906115619190612a6c565b8111156115a3576040517f08c379a000000000000000000000000000000000000000000000000000000000815260040161159a90612e67565b60405180910390fd5b8281600a54846115b3919061282d565b6115bd919061289e565b10156115fe576040517f08c379a00000000000000000000000000000000000000000000000000000000081526004016115f590612ed3565b60405180910390fd5b8381600a548461160e919061282d565b611618919061289e565b1115611659576040517f08c379a000000000000000000000000000000000000000000000000000000000815260040161165090612f3f565b60405180910390fd5b600360009054906101000a900473ffffffffffffffffffffffffffffffffffffffff1673ffffffffffffffffffffffffffffffffffffffff166323b872dd3330846040518463ffffffff1660e01b81526004016116b893929190612d52565b6020604051808303816000875af11580156116d7573d6000803e3d6000fd5b505050506040513d601f19601f820116820180604052508101906116fb9190612a2a565b50600360009054906101000a900473ffffffffffffffffffffffffffffffffffffffff1673ffffffffffffffffffffffffffffffffffffffff166370a08231306040518263ffffffff1660e01b815260040161175791906124cb565b602060405180830381865afa158015611774573d6000803e3d6000fd5b505050506040513d601f19601f820116820180604052508101906117989190612a6c565b600481905550476005819055506000816004546117b59190612961565b90506000805b600780549050811015611a20573373ffffffffffffffffffffffffffffffffffffffff16600782815481106117f3576117f2612a99565b5b9060005260206000200160009054906101000a900473ffffffffffffffffffffffffffffffffffffffff1673ffffffffffffffffffffffffffffffffffffffff16036118f55760019150600454600a548561184e919061282d565b84600660003373ffffffffffffffffffffffffffffffffffffffff1673ffffffffffffffffffffffffffffffffffffffff16815260200190815260200160002054611899919061282d565b6118a39190612995565b6118ad919061289e565b600660003373ffffffffffffffffffffffffffffffffffffffff1673ffffffffffffffffffffffffffffffffffffffff16815260200190815260200160002081905550611a0d565b60045483600660006007858154811061191157611910612a99565b5b9060005260206000200160009054906101000a900473ffffffffffffffffffffffffffffffffffffffff1673ffffffffffffffffffffffffffffffffffffffff1673ffffffffffffffffffffffffffffffffffffffff16815260200190815260200160002054611981919061282d565b61198b919061289e565b60066000600784815481106119a3576119a2612a99565b5b9060005260206000200160009054906101000a900473ffffffffffffffffffffffffffffffffffffffff1673ffffffffffffffffffffffffffffffffffffffff1673ffffffffffffffffffffffffffffffffffffffff168152602001908152602001600020819055505b8080611a1890612ac8565b9150506117bb565b5080611ae8576007339080600181540180825580915050600190039060005260206000200160009091909190916101000a81548173ffffffffffffffffffffffffffffffffffffffff021916908373ffffffffffffffffffffffffffffffffffffffff160217905550600454600a5484611a9a919061282d565b611aa4919061289e565b600660003373ffffffffffffffffffffffffffffffffffffffff1673ffffffffffffffffffffffffffffffffffffffff168152602001908152602001600020819055505b505050505050565b600b60009054906101000a900460ff1615611b40576040517f08c379a0000000000000000000000000000000000000000000000000000000008152600401611b37906126e0565b60405180910390fd5b6001600b60006101000a81548160ff02191690831515021790555060016005541015611ba1576040517f08c379a0000000000000000000000000000000000000000000000000000000008152600401611b9890612dd5565b60405180910390fd5b60008211611be4576040517f08c379a0000000000000000000000000000000000000000000000000000000008152600401611bdb90613187565b60405180910390fd5b600360009054906101000a900473ffffffffffffffffffffffffffffffffffffffff1673ffffffffffffffffffffffffffffffffffffffff166370a08231336040518263ffffffff1660e01b8152600401611c3f91906124cb565b602060405180830381865afa158015611c5c573d6000803e3d6000fd5b505050506040513d601f19601f82011682018060405250810190611c809190612a6c565b821115611cc2576040517f08c379a0000000000000000000000000000000000000000000000000000000008152600401611cb9906131f3565b60405180910390fd5b80600454600a54600554611cd6919061282d565b611ce0919061289e565b1115611d21576040517f08c379a0000000000000000000000000000000000000000000000000000000008152600401611d1890612941565b60405180910390fd5b60006064836008546064611d359190612961565b611d3f919061282d565b611d49919061289e565b600454611d569190612995565b600554600454611d66919061282d565b611d70919061289e565b600554611d7d9190612961565b9050600081600554611d8f9190612961565b03611da457600181611da19190612961565b90505b600360009054906101000a900473ffffffffffffffffffffffffffffffffffffffff1673ffffffffffffffffffffffffffffffffffffffff166323b872dd3330866040518463ffffffff1660e01b8152600401611e0393929190612d52565b6020604051808303816000875af1158015611e22573d6000803e3d6000fd5b505050506040513d601f19601f82011682018060405250810190611e469190612a2a565b50600360009054906101000a900473ffffffffffffffffffffffffffffffffffffffff1673ffffffffffffffffffffffffffffffffffffffff166370a08231306040518263ffffffff1660e01b8152600401611ea291906124cb565b602060405180830381865afa158015611ebf573d6000803e3d6000fd5b505050506040513d601f19601f82011682018060405250810190611ee39190612a6c565b6004819055503373ffffffffffffffffffffffffffffffffffffffff166108fc829081150290604051600060405180830381858888f19350505050158015611f2f573d6000803e3d6000fd5b5047600581905550506000600b60006101000a81548160ff0219169083151502179055505050565b60078181548110611f6757600080fd5b906000526020600020016000915054906101000a900473ffffffffffffffffffffffffffffffffffffffff1681565b600080600854600954915091509091565b611faf6120de565b600073ffffffffffffffffffffffffffffffffffffffff168173ffffffffffffffffffffffffffffffffffffffff160361201e576040517f08c379a000000000000000000000000000000000000000000000000000000000815260040161201590613285565b60405180910390fd5b6120278161215c565b50565b60018054612037906132d4565b80601f0160208091040260200160405190810160405280929190818152602001828054612063906132d4565b80156120b05780601f10612085576101008083540402835291602001916120b0565b820191906000526020600020905b81548152906001019060200180831161209357829003601f168201915b505050505081565b600360009054906101000a900473ffffffffffffffffffffffffffffffffffffffff1681565b6120e661235d565b73ffffffffffffffffffffffffffffffffffffffff16612104611429565b73ffffffffffffffffffffffffffffffffffffffff161461215a576040517f08c379a000000000000000000000000000000000000000000000000000000000815260040161215190613351565b60405180910390fd5b565b60008060009054906101000a900473ffffffffffffffffffffffffffffffffffffffff169050816000806101000a81548173ffffffffffffffffffffffffffffffffffffffff021916908373ffffffffffffffffffffffffffffffffffffffff1602179055508173ffffffffffffffffffffffffffffffffffffffff168173ffffffffffffffffffffffffffffffffffffffff167f8be0079c531659141344cd1fd0a4f28419497f9722a3daafe3b4186f6b6457e060405160405180910390a35050565b6007805490508110612267576040517f08c379a000000000000000000000000000000000000000000000000000000000815260040161225e906133e3565b60405180910390fd5b6007600160078054905061227b9190612961565b8154811061228c5761228b612a99565b5b9060005260206000200160009054906101000a900473ffffffffffffffffffffffffffffffffffffffff16600782815481106122cb576122ca612a99565b5b9060005260206000200160006101000a81548173ffffffffffffffffffffffffffffffffffffffff021916908373ffffffffffffffffffffffffffffffffffffffff160217905550600780548061232557612324613403565b5b6001900381819060005260206000200160006101000a81549073ffffffffffffffffffffffffffffffffffffffff0219169055905550565b600033905090565b600080fd5b6000819050919050565b61237d8161236a565b811461238857600080fd5b50565b60008135905061239a81612374565b92915050565b6000602082840312156123b6576123b5612365565b5b60006123c48482850161238b565b91505092915050565b600080604083850312156123e4576123e3612365565b5b60006123f28582860161238b565b92505060206124038582860161238b565b9150509250929050565b6124168161236a565b82525050565b6000602082019050612431600083018461240d565b92915050565b6000806000606084860312156124505761244f612365565b5b600061245e8682870161238b565b935050602061246f8682870161238b565b92505060406124808682870161238b565b9150509250925092565b600073ffffffffffffffffffffffffffffffffffffffff82169050919050565b60006124b58261248a565b9050919050565b6124c5816124aa565b82525050565b60006020820190506124e060008301846124bc565b92915050565b60006040820190506124fb600083018561240d565b612508602083018461240d565b9392505050565b612518816124aa565b811461252357600080fd5b50565b6000813590506125358161250f565b92915050565b60006020828403121561255157612550612365565b5b600061255f84828501612526565b91505092915050565b600081519050919050565b600082825260208201905092915050565b60005b838110156125a2578082015181840152602081019050612587565b60008484015250505050565b6000601f19601f8301169050919050565b60006125ca82612568565b6125d48185612573565b93506125e4818560208601612584565b6125ed816125ae565b840191505092915050565b6000602082019050818103600083015261261281846125bf565b905092915050565b6000819050919050565b600061263f61263a6126358461248a565b61261a565b61248a565b9050919050565b600061265182612624565b9050919050565b600061266382612646565b9050919050565b61267381612658565b82525050565b600060208201905061268e600083018461266a565b92915050565b7f4e6f2072652d656e7472616e6379000000000000000000000000000000000000600082015250565b60006126ca600e83612573565b91506126d582612694565b602082019050919050565b600060208201905081810360008301526126f9816126bd565b9050919050565b7f546f6b656e206973206d696e696d756d00000000000000000000000000000000600082015250565b6000612736601083612573565b915061274182612700565b602082019050919050565b6000602082019050818103600083015261276581612729565b9050919050565b7f4572726f723a204d7573742073776170206120706f73697469766520616d6f7560008201527f6e74206f66204554480000000000000000000000000000000000000000000000602082015250565b60006127c8602983612573565b91506127d38261276c565b604082019050919050565b600060208201905081810360008301526127f7816127bb565b9050919050565b7f4e487b7100000000000000000000000000000000000000000000000000000000600052601160045260246000fd5b60006128388261236a565b91506128438361236a565b92508282026128518161236a565b91508282048414831517612868576128676127fe565b5b5092915050565b7f4e487b7100000000000000000000000000000000000000000000000000000000600052601260045260246000fd5b60006128a98261236a565b91506128b48361236a565b9250826128c4576128c361286f565b5b828204905092915050565b7f4572726f723a2045786368616e6765207261746520677265617465722074686160008201527f6e20737065636966696564207261746500000000000000000000000000000000602082015250565b600061292b603083612573565b9150612936826128cf565b604082019050919050565b6000602082019050818103600083015261295a8161291e565b9050919050565b600061296c8261236a565b91506129778361236a565b925082820390508181111561298f5761298e6127fe565b5b92915050565b60006129a08261236a565b91506129ab8361236a565b92508282019050808211156129c3576129c26127fe565b5b92915050565b60006040820190506129de60008301856124bc565b6129eb602083018461240d565b9392505050565b60008115159050919050565b612a07816129f2565b8114612a1257600080fd5b50565b600081519050612a24816129fe565b92915050565b600060208284031215612a4057612a3f612365565b5b6000612a4e84828501612a15565b91505092915050565b600081519050612a6681612374565b92915050565b600060208284031215612a8257612a81612365565b5b6000612a9084828501612a57565b91505092915050565b7f4e487b7100000000000000000000000000000000000000000000000000000000600052603260045260246000fd5b6000612ad38261236a565b91507fffffffffffffffffffffffffffffffffffffffffffffffffffffffffffffffff8203612b0557612b046127fe565b5b600182019050919050565b7f546f6b656e20726573657276657320776173206e6f7420300000000000000000600082015250565b6000612b46601883612573565b9150612b5182612b10565b602082019050919050565b60006020820190508181036000830152612b7581612b39565b9050919050565b7f45544820726573657276657320776173206e6f7420302e000000000000000000600082015250565b6000612bb2601783612573565b9150612bbd82612b7c565b602082019050919050565b60006020820190508181036000830152612be181612ba5565b9050919050565b7f4e6565642065746820746f2063726561746520706f6f6c000000000000000000600082015250565b6000612c1e601783612573565b9150612c2982612be8565b602082019050919050565b60006020820190508181036000830152612c4d81612c11565b9050919050565b7f4e6f74206861766520656e6f75676820746f6b656e7320746f2063726561746560008201527f2074686520706f6f6c0000000000000000000000000000000000000000000000602082015250565b6000612cb0602983612573565b9150612cbb82612c54565b604082019050919050565b60006020820190508181036000830152612cdf81612ca3565b9050919050565b7f4e65656420746f6b656e7320746f2063726561746520706f6f6c2e0000000000600082015250565b6000612d1c601b83612573565b9150612d2782612ce6565b602082019050919050565b60006020820190508181036000830152612d4b81612d0f565b9050919050565b6000606082019050612d6760008301866124bc565b612d7460208301856124bc565b612d81604083018461240d565b949350505050565b7f455448206973206d696e696d756d000000000000000000000000000000000000600082015250565b6000612dbf600e83612573565b9150612dca82612d89565b602082019050919050565b60006020820190508181036000830152612dee81612db2565b9050919050565b7f4572726f723a205573657220646f6573206e6f74206861766520656e6f75676860008201527f20746f6b656e7300000000000000000000000000000000000000000000000000602082015250565b6000612e51602783612573565b9150612e5c82612df5565b604082019050919050565b60006020820190508181036000830152612e8081612e44565b9050919050565b7f4572726f723a2042656c6f77206d696e2065786368616e676520726174650000600082015250565b6000612ebd601e83612573565b9150612ec882612e87565b602082019050919050565b60006020820190508181036000830152612eec81612eb0565b9050919050565b7f4572726f723a2041626f7665206d61782065786368616e676520726174650000600082015250565b6000612f29601e83612573565b9150612f3482612ef3565b602082019050919050565b60006020820190508181036000830152612f5881612f1c565b9050919050565b7f4572726f723a2043616e6e6f74206465706c65746520746f6b656e207265736560008201527f7276657320746f20300000000000000000000000000000000000000000000000602082015250565b6000612fbb602983612573565b9150612fc682612f5f565b604082019050919050565b60006020820190508181036000830152612fea81612fae565b9050919050565b7f4572726f723a2043616e6e6f74206465706c657465204554482072657365727660008201527f657320746f203000000000000000000000000000000000000000000000000000602082015250565b600061304d602783612573565b915061305882612ff1565b604082019050919050565b6000602082019050818103600083015261307c81613040565b9050919050565b7f4572726f723a20537570706c79206f6620455448206e6f7420706f736974697660008201527f6500000000000000000000000000000000000000000000000000000000000000602082015250565b60006130df602183612573565b91506130ea82613083565b604082019050919050565b6000602082019050818103600083015261310e816130d2565b9050919050565b7f4572726f723a204d7573742073776170206120706f73697469766520616d6f7560008201527f6e74206f6620546f6b656e730000000000000000000000000000000000000000602082015250565b6000613171602c83612573565b915061317c82613115565b604082019050919050565b600060208201905081810360008301526131a081613164565b9050919050565b7f4572726f723a20446f6e2774206861766520656e6f75676820746f6b656e7300600082015250565b60006131dd601f83612573565b91506131e8826131a7565b602082019050919050565b6000602082019050818103600083015261320c816131d0565b9050919050565b7f4f776e61626c653a206e6577206f776e657220697320746865207a65726f206160008201527f6464726573730000000000000000000000000000000000000000000000000000602082015250565b600061326f602683612573565b915061327a82613213565b604082019050919050565b6000602082019050818103600083015261329e81613262565b9050919050565b7f4e487b7100000000000000000000000000000000000000000000000000000000600052602260045260246000fd5b600060028204905060018216806132ec57607f821691505b6020821081036132ff576132fe6132a5565b5b50919050565b7f4f776e61626c653a2063616c6c6572206973206e6f7420746865206f776e6572600082015250565b600061333b602083612573565b915061334682613305565b602082019050919050565b6000602082019050818103600083015261336a8161332e565b9050919050565b7f73706563696669656420696e646578206973206c6172676572207468616e207460008201527f6865206e756d626572206f66206c707300000000000000000000000000000000602082015250565b60006133cd603083612573565b91506133d882613371565b604082019050919050565b600060208201905081810360008301526133fc816133c0565b9050919050565b7f4e487b7100000000000000000000000000000000000000000000000000000000600052603160045260246000fdfea2646970667358221220ef6e83b96d38ac61ac1cf321d91d042baf2e59641a8ccf2f0c333227e79237dd64736f6c63430008110033",
  "linkReferences": {},
  "deployedLinkReferences": {}
}